{
  "contractName": "PriceConverter",
  "abi": [
    {
      "inputs": [],
      "payable": false,
      "stateMutability": "nonpayable",
      "type": "constructor"
    },
    {
      "constant": true,
      "inputs": [],
      "name": "getEthUsd",
      "outputs": [
        {
          "name": "",
          "type": "int256"
        }
      ],
      "payable": false,
      "stateMutability": "view",
      "type": "function"
    }
  ],
  "bytecode": "0x608060405234801561001057600080fd5b50735f4ec3df9cbd43714fe2740f5e3616155c5b84196000806101000a81548173ffffffffffffffffffffffffffffffffffffffff021916908373ffffffffffffffffffffffffffffffffffffffff1602179055506101af806100746000396000f300608060405260043610610041576000357c0100000000000000000000000000000000000000000000000000000000900463ffffffff168063bb27e0ce14610046575b600080fd5b34801561005257600080fd5b5061005b610071565b6040518082815260200191505060405180910390f35b6000806000806000806000809054906101000a900473ffffffffffffffffffffffffffffffffffffffff1673ffffffffffffffffffffffffffffffffffffffff1663feaf968c6040518163ffffffff167c010000000000000000000000000000000000000000000000000000000002815260040160a060405180830381600087803b1580156100ff57600080fd5b505af1158015610113573d6000803e3d6000fd5b505050506040513d60a081101561012957600080fd5b81019080805190602001909291908051906020019092919080519060200190929190805190602001909291908051906020019092919050505069ffffffffffffffffffff16945094509450945094508395505050505050905600a165627a7a72305820e9b67a5ba3099586a16692d86e6f4751608e71ac147cc9ba23190724b664c30b0029",
  "source": "// SPDX-License-Identifier: MIT\npragma solidity ^0.4.24;  \n\nimport \"@chainlink/contracts/src/v0.4/interfaces/AggregatorV3Interface.sol\";\n\ncontract PriceConverter {\n    AggregatorV3Interface internal eth_usd_price_feed;\n\n    /**\n    * Aggregator: ETH/USD \n    * Address: 0x5f4eC3Df9cbd43714FE2740f5E3616155c5b8419\n    */\n    constructor() public{\n        eth_usd_price_feed = AggregatorV3Interface(0x5f4eC3Df9cbd43714FE2740f5E3616155c5b8419);\n    }\n\n    function getEthUsd() public view returns (int) {\n        ( \n            uint80 roundID,\n            int price,\n            uint startedAt,\n            uint timestamp,\n            uint answeredInRound\n        ) = eth_usd_price_feed.latestRoundData();\n\n        return price;\n    }\n\n    \n}",
  "sourcePath": "/home/hector/Sites/TFG/dapp/truffle/contracts/PriceConverter.sol",
  "compiler": {
    "name": "solc",
    "version": "0.4.24+commit.e67f0147.Emscripten.clang"
  },
  "schemaVersion": "3.4.3",
  "updatedAt": "2021-11-09T15:21:54.199Z",
  "devdoc": {
    "methods": {}
  },
  "userdoc": {
    "methods": {}
  }
}