{
  "contractName": "Properties",
  "abi": [
    {
      "constant": true,
      "inputs": [],
      "name": "propertyCounter",
      "outputs": [
        {
          "name": "",
          "type": "uint256"
        }
      ],
      "payable": false,
      "stateMutability": "view",
      "type": "function"
    },
    {
      "constant": true,
      "inputs": [
        {
          "name": "",
          "type": "uint256"
        }
      ],
      "name": "properties",
      "outputs": [
        {
          "name": "id",
          "type": "uint256"
        },
        {
          "name": "city",
          "type": "string"
        },
        {
          "name": "price",
          "type": "uint256"
        },
        {
          "name": "isSelled",
          "type": "bool"
        },
        {
          "name": "createdAt",
          "type": "uint256"
        }
      ],
      "payable": false,
      "stateMutability": "view",
      "type": "function"
    },
    {
      "inputs": [],
      "payable": false,
      "stateMutability": "nonpayable",
      "type": "constructor"
    },
    {
      "anonymous": false,
      "inputs": [
        {
          "indexed": false,
          "name": "id",
          "type": "uint256"
        },
        {
          "indexed": false,
          "name": "city",
          "type": "string"
        },
        {
          "indexed": false,
          "name": "price",
          "type": "uint256"
        },
        {
          "indexed": false,
          "name": "isSelled",
          "type": "bool"
        },
        {
          "indexed": false,
          "name": "createdAt",
          "type": "uint256"
        }
      ],
      "name": "PropertyCreated",
      "type": "event"
    },
    {
      "anonymous": false,
      "inputs": [
        {
          "indexed": false,
          "name": "id",
          "type": "uint256"
        },
        {
          "indexed": false,
          "name": "isSelled",
          "type": "bool"
        }
      ],
      "name": "isPropertySelled",
      "type": "event"
    },
    {
      "constant": false,
      "inputs": [
        {
          "name": "_city",
          "type": "string"
        },
        {
          "name": "_price",
          "type": "uint256"
        }
      ],
      "name": "uploadProperty",
      "outputs": [],
      "payable": false,
      "stateMutability": "nonpayable",
      "type": "function"
    },
    {
      "constant": false,
      "inputs": [
        {
          "name": "_id",
          "type": "uint256"
        }
      ],
      "name": "removeProperty",
      "outputs": [],
      "payable": false,
      "stateMutability": "nonpayable",
      "type": "function"
    }
  ],
  "bytecode": "0x60806040526000805534801561001457600080fd5b506100666040805190810160405280600a81526020017f56696c61646563616e7300000000000000000000000000000000000000000000815250620249f061006b640100000000026401000000009004565b610287565b600080815480929190600101919050555060a06040519081016040528060005481526020018381526020018281526020016000151581526020014281525060016000805481526020019081526020016000206000820151816000015560208201518160010190805190602001906100e39291906101e2565b506040820151816002015560608201518160030160006101000a81548160ff021916908315150217905550608082015181600401559050507f6bd29f841b003ebe93256b11f46749656309ca206b254802233b295bc183e7e76000548383600042604051808681526020018060200185815260200184151515158152602001838152602001828103825286818151815260200191508051906020019080838360005b838110156101a0578082015181840152602081019050610185565b50505050905090810190601f1680156101cd5780820380516001836020036101000a031916815260200191505b50965050505050505060405180910390a15050565b828054600181600116156101000203166002900490600052602060002090601f016020900481019282601f1061022357805160ff1916838001178555610251565b82800160010185558215610251579182015b82811115610250578251825591602001919060010190610235565b5b50905061025e9190610262565b5090565b61028491905b80821115610280576000816000905550600101610268565b5090565b90565b610729806102966000396000f300608060405260043610610062576000357c0100000000000000000000000000000000000000000000000000000000900463ffffffff168063828d250614610067578063bc43d06f146100da578063d090e47e14610107578063f7b1080814610132575b600080fd5b34801561007357600080fd5b506100d8600480360381019080803590602001908201803590602001908080601f0160208091040260200160405190810160405280939291908181526020018383808284378201915050505050509192919290803590602001909291905050506101f8565b005b3480156100e657600080fd5b506101056004803603810190808035906020019092919050505061036f565b005b34801561011357600080fd5b5061011c610545565b6040518082815260200191505060405180910390f35b34801561013e57600080fd5b5061015d6004803603810190808035906020019092919050505061054b565b604051808681526020018060200185815260200184151515158152602001838152602001828103825286818151815260200191508051906020019080838360005b838110156101b957808201518184015260208101905061019e565b50505050905090810190601f1680156101e65780820380516001836020036101000a031916815260200191505b50965050505050505060405180910390f35b600080815480929190600101919050555060a0604051908101604052806000548152602001838152602001828152602001600015158152602001428152506001600080548152602001908152602001600020600082015181600001556020820151816001019080519060200190610270929190610626565b506040820151816002015560608201518160030160006101000a81548160ff021916908315150217905550608082015181600401559050507f6bd29f841b003ebe93256b11f46749656309ca206b254802233b295bc183e7e76000548383600042604051808681526020018060200185815260200184151515158152602001838152602001828103825286818151815260200191508051906020019080838360005b8381101561032d578082015181840152602081019050610312565b50505050905090810190601f16801561035a5780820380516001836020036101000a031916815260200191505b50965050505050505060405180910390a15050565b6103776106a6565b6001600083815260200190815260200160002060a0604051908101604052908160008201548152602001600182018054600181600116156101000203166002900480601f0160208091040260200160405190810160405280929190818152602001828054600181600116156101000203166002900480156104395780601f1061040e57610100808354040283529160200191610439565b820191906000526020600020905b81548152906001019060200180831161041c57829003601f168201915b50505050508152602001600282015481526020016003820160009054906101000a900460ff16151515158152602001600482015481525050905080606001511581606001901515908115158152505080600160008481526020019081526020016000206000820151816000015560208201518160010190805190602001906104c2929190610626565b506040820151816002015560608201518160030160006101000a81548160ff021916908315150217905550608082015181600401559050507f201cb7d1ee086ec886eb18a6eac6473ee8d50536a4873397f808932f09eb0f9e82826060015160405180838152602001821515151581526020019250505060405180910390a15050565b60005481565b6001602052806000526040600020600091509050806000015490806001018054600181600116156101000203166002900480601f0160208091040260200160405190810160405280929190818152602001828054600181600116156101000203166002900480156105fd5780601f106105d2576101008083540402835291602001916105fd565b820191906000526020600020905b8154815290600101906020018083116105e057829003601f168201915b5050505050908060020154908060030160009054906101000a900460ff16908060040154905085565b828054600181600116156101000203166002900490600052602060002090601f016020900481019282601f1061066757805160ff1916838001178555610695565b82800160010185558215610695579182015b82811115610694578251825591602001919060010190610679565b5b5090506106a291906106d8565b5090565b60a060405190810160405280600081526020016060815260200160008152602001600015158152602001600081525090565b6106fa91905b808211156106f65760008160009055506001016106de565b5090565b905600a165627a7a7230582087a39fc6d2490ddbfb0d82357165bfd368a26247c6e09669e1f04983c558c7d20029",
  "source": "// SPDX-License-Identifier: MIT\npragma solidity ^0.4.24;  \n\ncontract Properties {\n    \n    uint public propertyCounter = 0;\n\n    // Clave - Valor\n    mapping (uint256 => Property) public properties;\n\n    constructor() public{\n        uploadProperty(\"Viladecans\", 150000);\n    }\n\n    event PropertyCreated(\n        uint256 id,\n        string city,\n        uint256 price,\n        bool isSelled,\n        uint256 createdAt\n    );\n\n    event isPropertySelled (uint256 id, bool isSelled);\n\n    struct Property {\n        uint256 id;\n        string city;\n        uint256 price;\n        bool isSelled;\n        uint256 createdAt;\n    }\n\n    // CRUD\n    // Se crea una nueva propiedad\n    function uploadProperty(string _city, uint256 _price) public{\n        propertyCounter++;\n        properties[propertyCounter] = Property(propertyCounter, _city, _price, false, block.timestamp);\n        emit PropertyCreated(propertyCounter, _city, _price, false, block.timestamp);\n    }\n\n    // // Se ejecuta al vender la propiedad (isSelled = 1)\n    // function updateProperty(){\n\n    // }\n\n    // Se ejecuta al vender una propiedad (isSelled = 1)\n    function removeProperty(uint _id) public{\n        Property memory _property = properties[_id];\n        _property.isSelled = !_property.isSelled;\n\n        properties[_id] = _property;\n        emit isPropertySelled(_id, _property.isSelled);\n    }\n\n}",
  "sourcePath": "/home/hector/Sites/TFG/truffle/contracts/Properties.sol",
  "compiler": {
    "name": "solc",
    "version": "0.4.24+commit.e67f0147.Emscripten.clang"
  },
  "schemaVersion": "3.4.3",
  "updatedAt": "2021-11-04T16:32:18.986Z",
  "networkType": "ethereum",
  "devdoc": {
    "methods": {}
  },
  "userdoc": {
    "methods": {}
  }
}