{
  "contractName": "SellProperty",
  "abi": [
    {
      "constant": true,
      "inputs": [
        {
          "name": "",
          "type": "address"
        }
      ],
      "name": "buyerTotalProperties",
      "outputs": [
        {
          "name": "",
          "type": "uint256"
        }
      ],
      "payable": false,
      "stateMutability": "view",
      "type": "function"
    },
    {
      "constant": true,
      "inputs": [],
      "name": "owner",
      "outputs": [
        {
          "name": "",
          "type": "address"
        }
      ],
      "payable": false,
      "stateMutability": "view",
      "type": "function"
    },
    {
      "constant": true,
      "inputs": [
        {
          "name": "",
          "type": "address"
        }
      ],
      "name": "buyers",
      "outputs": [
        {
          "name": "totalProperties",
          "type": "uint256"
        }
      ],
      "payable": false,
      "stateMutability": "view",
      "type": "function"
    },
    {
      "constant": true,
      "inputs": [
        {
          "name": "",
          "type": "address"
        },
        {
          "name": "",
          "type": "uint256"
        }
      ],
      "name": "buyerProperties",
      "outputs": [
        {
          "name": "idProperty",
          "type": "string"
        },
        {
          "name": "price",
          "type": "uint256"
        }
      ],
      "payable": false,
      "stateMutability": "view",
      "type": "function"
    },
    {
      "constant": true,
      "inputs": [
        {
          "name": "",
          "type": "uint256"
        }
      ],
      "name": "properties",
      "outputs": [
        {
          "name": "idProperty",
          "type": "string"
        },
        {
          "name": "price",
          "type": "uint256"
        }
      ],
      "payable": false,
      "stateMutability": "view",
      "type": "function"
    },
    {
      "inputs": [],
      "payable": false,
      "stateMutability": "nonpayable",
      "type": "constructor"
    },
    {
      "anonymous": false,
      "inputs": [
        {
          "indexed": true,
          "name": "buyer",
          "type": "address"
        },
        {
          "indexed": false,
          "name": "price",
          "type": "uint256"
        }
      ],
      "name": "PropertyPurchased",
      "type": "event"
    },
    {
      "constant": false,
      "inputs": [
        {
          "name": "propertyIndex",
          "type": "uint256"
        }
      ],
      "name": "buyProperty",
      "outputs": [],
      "payable": true,
      "stateMutability": "payable",
      "type": "function"
    },
    {
      "constant": true,
      "inputs": [],
      "name": "totalProperties",
      "outputs": [
        {
          "name": "",
          "type": "uint256"
        }
      ],
      "payable": false,
      "stateMutability": "view",
      "type": "function"
    }
  ],
  "bytecode": "0x608060405234801561001057600080fd5b50336000806101000a81548173ffffffffffffffffffffffffffffffffffffffff021916908373ffffffffffffffffffffffffffffffffffffffff160217905550600160408051908101604052806040805190810160405280600481526020017f70313233000000000000000000000000000000000000000000000000000000008152508152602001670de0b6b3a76400008152509080600181540180825580915050906001820390600052602060002090600202016000909192909190915060008201518160000190805190602001906100ec9291906101a8565b5060208201518160010155505050600160408051908101604052806040805190810160405280600481526020017f61373533000000000000000000000000000000000000000000000000000000008152508152602001671bc16d674ec800008152509080600181540180825580915050906001820390600052602060002090600202016000909192909190915060008201518160000190805190602001906101959291906101a8565b506020820151816001015550505061024d565b828054600181600116156101000203166002900490600052602060002090601f016020900481019282601f106101e957805160ff1916838001178555610217565b82800160010185558215610217579182015b828111156102165782518255916020019190600101906101fb565b5b5090506102249190610228565b5090565b61024a91905b8082111561024657600081600090555060010161022e565b5090565b90565b6108038061025c6000396000f300608060405260043610610083576000357c0100000000000000000000000000000000000000000000000000000000900463ffffffff1680630b3bce20146100885780635a67edca146100b35780636fa830a61461010a5780638da5cb5b1461012a57806397a993aa14610181578063ce5635a5146101d8578063f7b10808146102a5575b600080fd5b34801561009457600080fd5b5061009d610352565b6040518082815260200191505060405180910390f35b3480156100bf57600080fd5b506100f4600480360381019080803573ffffffffffffffffffffffffffffffffffffffff16906020019092919050505061035f565b6040518082815260200191505060405180910390f35b61012860048036038101908080359060200190929190505050610377565b005b34801561013657600080fd5b5061013f610545565b604051808273ffffffffffffffffffffffffffffffffffffffff1673ffffffffffffffffffffffffffffffffffffffff16815260200191505060405180910390f35b34801561018d57600080fd5b506101c2600480360381019080803573ffffffffffffffffffffffffffffffffffffffff16906020019092919050505061056a565b6040518082815260200191505060405180910390f35b3480156101e457600080fd5b50610223600480360381019080803573ffffffffffffffffffffffffffffffffffffffff16906020019092919080359060200190929190505050610588565b6040518080602001838152602001828103825284818151815260200191508051906020019080838360005b8381101561026957808201518184015260208101905061024e565b50505050905090810190601f1680156102965780820380516001836020036101000a031916815260200191505b50935050505060405180910390f35b3480156102b157600080fd5b506102d060048036038101908080359060200190929190505050610660565b6040518080602001838152602001828103825284818151815260200191508051906020019080838360005b838110156103165780820151818401526020810190506102fb565b50505050905090810190601f1680156103435780820380516001836020036101000a031916815260200191505b50935050505060405180910390f35b6000600180549050905090565b60046020528060005260406000206000915090505481565b60008060018381548110151561038957fe5b906000526020600020906002020191508160010154341415156103ab57600080fd5b600260003373ffffffffffffffffffffffffffffffffffffffff1673ffffffffffffffffffffffffffffffffffffffff168152602001908152602001600020905060018160000160008282540192505081905550600360003373ffffffffffffffffffffffffffffffffffffffff1673ffffffffffffffffffffffffffffffffffffffff16815260200190815260200160002082908060018154018082558091505090600182039060005260206000209060020201600090919290919091506000820181600001908054600181600116156101000203166002900461049192919061072b565b5060018201548160010155505050600460003373ffffffffffffffffffffffffffffffffffffffff1673ffffffffffffffffffffffffffffffffffffffff168152602001908152602001600020600081548092919060010191905055503373ffffffffffffffffffffffffffffffffffffffff167f3c0cade9d270c0005f089d49842bd35076264614be1ca87be18f996825d9e07c83600101546040518082815260200191505060405180910390a2505050565b6000809054906101000a900473ffffffffffffffffffffffffffffffffffffffff1681565b60026020528060005260406000206000915090508060000154905081565b6003602052816000526040600020818154811015156105a357fe5b906000526020600020906002020160009150915050806000018054600181600116156101000203166002900480601f0160208091040260200160405190810160405280929190818152602001828054600181600116156101000203166002900480156106505780601f1061062557610100808354040283529160200191610650565b820191906000526020600020905b81548152906001019060200180831161063357829003601f168201915b5050505050908060010154905082565b60018181548110151561066f57fe5b9060005260206000209060020201600091509050806000018054600181600116156101000203166002900480601f01602080910402602001604051908101604052809291908181526020018280546001816001161561010002031660029004801561071b5780601f106106f05761010080835404028352916020019161071b565b820191906000526020600020905b8154815290600101906020018083116106fe57829003601f168201915b5050505050908060010154905082565b828054600181600116156101000203166002900490600052602060002090601f016020900481019282601f1061076457805485556107a1565b828001600101855582156107a157600052602060002091601f016020900482015b828111156107a0578254825591600101919060010190610785565b5b5090506107ae91906107b2565b5090565b6107d491905b808211156107d05760008160009055506001016107b8565b5090565b905600a165627a7a7230582019837978c3263b09ecd38c3448da5215a8c6be5873b5906292eefd9957f41c730029",
  "source": "// SPDX-License-Identifier: MIT\npragma solidity ^0.4.24;  \n\ncontract SellProperty {\n    address public owner;           // Owner = Seller in this case\n\n    struct Buyer {\n        uint totalProperties;\n    }\n\n    struct Property {\n        string idProperty;\n        uint price;\n        // bool isTokenised;\n        // string addr;\n        // string city;\n        // uint zipCode;\n        // string country;\n        // string cadastralRef;\n    }\n\n    // struct tokenisedProperty {\n    //     uint numTokens;\n    //     uint priceToken;                // Price / numTokens\n    // }\n\n    Property[] public properties;\n    mapping(address => Buyer) public buyers;\n    mapping(address => Property[]) public buyerProperties;\n    mapping(address => uint) public buyerTotalProperties;\n\n    event PropertyPurchased(address indexed buyer, uint price);\n    constructor() public{\n        owner = msg.sender;         // Who deploys the smart contract\n        properties.push(Property('p123', 1 ether));\n        properties.push(Property('a753', 2 ether));\n    }\n\n    function buyProperty(uint propertyIndex) public payable{\n        Property storage property = properties[propertyIndex];\n        require(msg.value == property.price);\n\n        Buyer storage buyer = buyers[msg.sender];\n        buyer.totalProperties += 1;\n        buyerProperties[msg.sender].push(property);\n        buyerTotalProperties[msg.sender]++;\n\n        emit PropertyPurchased(msg.sender, property.price);\n    }\n\n    function totalProperties() public view returns(uint){\n        return properties.length;\n    }\n}",
  "sourcePath": "/home/hector/Sites/TFG/truffle/contracts/old/SellProperty.sol",
  "compiler": {
    "name": "solc",
    "version": "0.4.24+commit.e67f0147.Emscripten.clang"
  },
  "schemaVersion": "3.4.3",
  "updatedAt": "2021-11-03T15:22:06.608Z",
  "devdoc": {
    "methods": {}
  },
  "userdoc": {
    "methods": {}
  }
}