{
  "contractName": "Auth",
  "abi": [
    {
      "constant": true,
      "inputs": [
        {
          "name": "",
          "type": "uint256"
        }
      ],
      "name": "users",
      "outputs": [
        {
          "name": "addr",
          "type": "address"
        },
        {
          "name": "name",
          "type": "string"
        },
        {
          "name": "email",
          "type": "string"
        },
        {
          "name": "password",
          "type": "string"
        },
        {
          "name": "isLoggedIn",
          "type": "bool"
        }
      ],
      "payable": false,
      "stateMutability": "view",
      "type": "function"
    },
    {
      "constant": true,
      "inputs": [],
      "name": "usersCounter",
      "outputs": [
        {
          "name": "",
          "type": "uint256"
        }
      ],
      "payable": false,
      "stateMutability": "view",
      "type": "function"
    },
    {
      "constant": true,
      "inputs": [
        {
          "name": "",
          "type": "address"
        }
      ],
      "name": "usersByAddr",
      "outputs": [
        {
          "name": "addr",
          "type": "address"
        },
        {
          "name": "name",
          "type": "string"
        },
        {
          "name": "email",
          "type": "string"
        },
        {
          "name": "password",
          "type": "string"
        },
        {
          "name": "isLoggedIn",
          "type": "bool"
        }
      ],
      "payable": false,
      "stateMutability": "view",
      "type": "function"
    },
    {
      "inputs": [],
      "payable": false,
      "stateMutability": "nonpayable",
      "type": "constructor"
    },
    {
      "anonymous": false,
      "inputs": [
        {
          "indexed": false,
          "name": "addr",
          "type": "address"
        },
        {
          "indexed": false,
          "name": "name",
          "type": "string"
        },
        {
          "indexed": false,
          "name": "email",
          "type": "string"
        },
        {
          "indexed": false,
          "name": "password",
          "type": "string"
        },
        {
          "indexed": false,
          "name": "isLoggedIn",
          "type": "bool"
        }
      ],
      "name": "newUser",
      "type": "event"
    },
    {
      "constant": false,
      "inputs": [
        {
          "name": "_name",
          "type": "string"
        },
        {
          "name": "_email",
          "type": "string"
        },
        {
          "name": "_password",
          "type": "string"
        }
      ],
      "name": "signUp",
      "outputs": [
        {
          "name": "",
          "type": "bool"
        }
      ],
      "payable": false,
      "stateMutability": "nonpayable",
      "type": "function"
    },
    {
      "constant": false,
      "inputs": [
        {
          "name": "_address",
          "type": "address"
        },
        {
          "name": "_password",
          "type": "string"
        }
      ],
      "name": "signIn",
      "outputs": [
        {
          "name": "",
          "type": "bool"
        }
      ],
      "payable": false,
      "stateMutability": "nonpayable",
      "type": "function"
    },
    {
      "constant": true,
      "inputs": [
        {
          "name": "_usersCounter",
          "type": "uint256"
        }
      ],
      "name": "checkIsUserLogged",
      "outputs": [
        {
          "name": "",
          "type": "bool"
        }
      ],
      "payable": false,
      "stateMutability": "view",
      "type": "function"
    },
    {
      "constant": true,
      "inputs": [
        {
          "name": "_address",
          "type": "address"
        }
      ],
      "name": "checkIsUserLoggedByAddr",
      "outputs": [
        {
          "name": "",
          "type": "bool"
        }
      ],
      "payable": false,
      "stateMutability": "view",
      "type": "function"
    },
    {
      "constant": false,
      "inputs": [
        {
          "name": "_usersCounter",
          "type": "uint256"
        }
      ],
      "name": "logout",
      "outputs": [],
      "payable": false,
      "stateMutability": "nonpayable",
      "type": "function"
    },
    {
      "constant": false,
      "inputs": [
        {
          "name": "_address",
          "type": "address"
        }
      ],
      "name": "logoutByAddr",
      "outputs": [],
      "payable": false,
      "stateMutability": "nonpayable",
      "type": "function"
    }
  ],
  "bytecode": "0x6080604052600080553480156200001557600080fd5b50620000d16040805190810160405280600781526020017f48c3a963746f72000000000000000000000000000000000000000000000000008152506040805190810160405280601081526020017f686d6f6e706140676d61696c2e636f6d000000000000000000000000000000008152506040805190810160405280600a81526020017f7061737331323334353600000000000000000000000000000000000000000000815250620000d8640100000000026401000000009004565b50620005cd565b60008033905060a0604051908101604052808273ffffffffffffffffffffffffffffffffffffffff16815260200186815260200185815260200184815260200160001515815250600160008054815260200190815260200160002060008201518160000160006101000a81548173ffffffffffffffffffffffffffffffffffffffff021916908373ffffffffffffffffffffffffffffffffffffffff1602179055506020820151816001019080519060200190620001989291906200051e565b506040820151816002019080519060200190620001b79291906200051e565b506060820151816003019080519060200190620001d69291906200051e565b5060808201518160040160006101000a81548160ff02191690831515021790555090505060a0604051908101604052808273ffffffffffffffffffffffffffffffffffffffff16815260200186815260200185815260200184815260200160001515815250600260008373ffffffffffffffffffffffffffffffffffffffff1673ffffffffffffffffffffffffffffffffffffffff16815260200190815260200160002060008201518160000160006101000a81548173ffffffffffffffffffffffffffffffffffffffff021916908373ffffffffffffffffffffffffffffffffffffffff1602179055506020820151816001019080519060200190620002df9291906200051e565b506040820151816002019080519060200190620002fe9291906200051e565b5060608201518160030190805190602001906200031d9291906200051e565b5060808201518160040160006101000a81548160ff02191690831515021790555090505060008081548092919060010191905055507f563948cac0a706571ae87f2211f6a8c8dae10685e3d7961ac6193c8f0753e616818686866000604051808673ffffffffffffffffffffffffffffffffffffffff1673ffffffffffffffffffffffffffffffffffffffff16815260200180602001806020018060200185151515158152602001848103845288818151815260200191508051906020019080838360005b83811015620003ff578082015181840152602081019050620003e2565b50505050905090810190601f1680156200042d5780820380516001836020036101000a031916815260200191505b50848103835287818151815260200191508051906020019080838360005b83811015620004685780820151818401526020810190506200044b565b50505050905090810190601f168015620004965780820380516001836020036101000a031916815260200191505b50848103825286818151815260200191508051906020019080838360005b83811015620004d1578082015181840152602081019050620004b4565b50505050905090810190601f168015620004ff5780820380516001836020036101000a031916815260200191505b509850505050505050505060405180910390a160019150509392505050565b828054600181600116156101000203166002900490600052602060002090601f016020900481019282601f106200056157805160ff191683800117855562000592565b8280016001018555821562000592579182015b828111156200059157825182559160200191906001019062000574565b5b509050620005a19190620005a5565b5090565b620005ca91905b80821115620005c6576000816000905550600101620005ac565b5090565b90565b6114b580620005dd6000396000f300608060405260043610610099576000357c0100000000000000000000000000000000000000000000000000000000900463ffffffff1680630acee0d51461009e57806321ec1f56146100e35780632c97f1611461013e578063365b98b21461016b5780635729a86214610327578063cb2b6f14146103c8578063cf051d3d146104d5578063d67b1b9914610518578063d7b8ada014610543575b600080fd5b3480156100aa57600080fd5b506100c960048036038101908080359060200190929190505050610715565b604051808215151515815260200191505060405180910390f35b3480156100ef57600080fd5b50610124600480360381019080803573ffffffffffffffffffffffffffffffffffffffff169060200190929190505050610742565b604051808215151515815260200191505060405180910390f35b34801561014a57600080fd5b506101696004803603810190808035906020019092919050505061079b565b005b34801561017757600080fd5b50610196600480360381019080803590602001909291905050506107cd565b604051808673ffffffffffffffffffffffffffffffffffffffff1673ffffffffffffffffffffffffffffffffffffffff16815260200180602001806020018060200185151515158152602001848103845288818151815260200191508051906020019080838360005b8381101561021a5780820151818401526020810190506101ff565b50505050905090810190601f1680156102475780820380516001836020036101000a031916815260200191505b50848103835287818151815260200191508051906020019080838360005b83811015610280578082015181840152602081019050610265565b50505050905090810190601f1680156102ad5780820380516001836020036101000a031916815260200191505b50848103825286818151815260200191508051906020019080838360005b838110156102e65780820151818401526020810190506102cb565b50505050905090810190601f1680156103135780820380516001836020036101000a031916815260200191505b509850505050505050505060405180910390f35b34801561033357600080fd5b506103ae600480360381019080803573ffffffffffffffffffffffffffffffffffffffff169060200190929190803590602001908201803590602001908080601f01602080910402602001604051908101604052809392919081815260200183838082843782019150505050505091929192905050506109f8565b604051808215151515815260200191505060405180910390f35b3480156103d457600080fd5b506104bb600480360381019080803590602001908201803590602001908080601f0160208091040260200160405190810160405280939291908181526020018383808284378201915050505050509192919290803590602001908201803590602001908080601f0160208091040260200160405190810160405280939291908181526020018383808284378201915050505050509192919290803590602001908201803590602001908080601f0160208091040260200160405190810160405280939291908181526020018383808284378201915050505050509192919290505050610d24565b604051808215151515815260200191505060405180910390f35b3480156104e157600080fd5b50610516600480360381019080803573ffffffffffffffffffffffffffffffffffffffff169060200190929190505050611155565b005b34801561052457600080fd5b5061052d6111b3565b6040518082815260200191505060405180910390f35b34801561054f57600080fd5b50610584600480360381019080803573ffffffffffffffffffffffffffffffffffffffff1690602001909291905050506111b9565b604051808673ffffffffffffffffffffffffffffffffffffffff1673ffffffffffffffffffffffffffffffffffffffff16815260200180602001806020018060200185151515158152602001848103845288818151815260200191508051906020019080838360005b838110156106085780820151818401526020810190506105ed565b50505050905090810190601f1680156106355780820380516001836020036101000a031916815260200191505b50848103835287818151815260200191508051906020019080838360005b8381101561066e578082015181840152602081019050610653565b50505050905090810190601f16801561069b5780820380516001836020036101000a031916815260200191505b50848103825286818151815260200191508051906020019080838360005b838110156106d45780820151818401526020810190506106b9565b50505050905090810190601f1680156107015780820380516001836020036101000a031916815260200191505b509850505050505050505060405180910390f35b60006001600083815260200190815260200160002060040160009054906101000a900460ff169050919050565b6000600260008373ffffffffffffffffffffffffffffffffffffffff1673ffffffffffffffffffffffffffffffffffffffff16815260200190815260200160002060040160009054906101000a900460ff169050919050565b60006001600083815260200190815260200160002060040160006101000a81548160ff02191690831515021790555050565b60016020528060005260406000206000915090508060000160009054906101000a900473ffffffffffffffffffffffffffffffffffffffff1690806001018054600181600116156101000203166002900480601f01602080910402602001604051908101604052809291908181526020018280546001816001161561010002031660029004801561089f5780601f106108745761010080835404028352916020019161089f565b820191906000526020600020905b81548152906001019060200180831161088257829003601f168201915b505050505090806002018054600181600116156101000203166002900480601f01602080910402602001604051908101604052809291908181526020018280546001816001161561010002031660029004801561093d5780601f106109125761010080835404028352916020019161093d565b820191906000526020600020905b81548152906001019060200180831161092057829003601f168201915b505050505090806003018054600181600116156101000203166002900480601f0160208091040260200160405190810160405280929190818152602001828054600181600116156101000203166002900480156109db5780601f106109b0576101008083540402835291602001916109db565b820191906000526020600020905b8154815290600101906020018083116109be57829003601f168201915b5050505050908060040160009054906101000a900460ff16905085565b6000816040516020018082805190602001908083835b602083101515610a335780518252602082019150602081019050602083039250610a0e565b6001836020036101000a0380198251168184511680821785525050505050509050019150506040516020818303038152906040526040518082805190602001908083835b602083101515610a9c5780518252602082019150602081019050602083039250610a77565b6001836020036101000a038019825116818451168082178552505050505050905001915050604051809103902060001916600260008573ffffffffffffffffffffffffffffffffffffffff1673ffffffffffffffffffffffffffffffffffffffff1681526020019081526020016000206003016040516020018082805460018160011615610100020316600290048015610b6d5780601f10610b4b576101008083540402835291820191610b6d565b820191906000526020600020905b815481529060010190602001808311610b59575b50509150506040516020818303038152906040526040518082805190602001908083835b602083101515610bb65780518252602082019150602081019050602083039250610b91565b6001836020036101000a038019825116818451168082178552505050505050905001915050604051809103902060001916148015610c8157508273ffffffffffffffffffffffffffffffffffffffff16600260008573ffffffffffffffffffffffffffffffffffffffff1673ffffffffffffffffffffffffffffffffffffffff16815260200190815260200160002060000160009054906101000a900473ffffffffffffffffffffffffffffffffffffffff1673ffffffffffffffffffffffffffffffffffffffff16145b15610d195760018060008054815260200190815260200160002060040160006101000a81548160ff0219169083151502179055506001600260008573ffffffffffffffffffffffffffffffffffffffff1673ffffffffffffffffffffffffffffffffffffffff16815260200190815260200160002060040160006101000a81548160ff02191690831515021790555060019050610d1e565b600090505b92915050565b60008033905060a0604051908101604052808273ffffffffffffffffffffffffffffffffffffffff16815260200186815260200185815260200184815260200160001515815250600160008054815260200190815260200160002060008201518160000160006101000a81548173ffffffffffffffffffffffffffffffffffffffff021916908373ffffffffffffffffffffffffffffffffffffffff1602179055506020820151816001019080519060200190610de29291906113e4565b506040820151816002019080519060200190610dff9291906113e4565b506060820151816003019080519060200190610e1c9291906113e4565b5060808201518160040160006101000a81548160ff02191690831515021790555090505060a0604051908101604052808273ffffffffffffffffffffffffffffffffffffffff16815260200186815260200185815260200184815260200160001515815250600260008373ffffffffffffffffffffffffffffffffffffffff1673ffffffffffffffffffffffffffffffffffffffff16815260200190815260200160002060008201518160000160006101000a81548173ffffffffffffffffffffffffffffffffffffffff021916908373ffffffffffffffffffffffffffffffffffffffff1602179055506020820151816001019080519060200190610f239291906113e4565b506040820151816002019080519060200190610f409291906113e4565b506060820151816003019080519060200190610f5d9291906113e4565b5060808201518160040160006101000a81548160ff02191690831515021790555090505060008081548092919060010191905055507f563948cac0a706571ae87f2211f6a8c8dae10685e3d7961ac6193c8f0753e616818686866000604051808673ffffffffffffffffffffffffffffffffffffffff1673ffffffffffffffffffffffffffffffffffffffff16815260200180602001806020018060200185151515158152602001848103845288818151815260200191508051906020019080838360005b8381101561103d578082015181840152602081019050611022565b50505050905090810190601f16801561106a5780820380516001836020036101000a031916815260200191505b50848103835287818151815260200191508051906020019080838360005b838110156110a3578082015181840152602081019050611088565b50505050905090810190601f1680156110d05780820380516001836020036101000a031916815260200191505b50848103825286818151815260200191508051906020019080838360005b838110156111095780820151818401526020810190506110ee565b50505050905090810190601f1680156111365780820380516001836020036101000a031916815260200191505b509850505050505050505060405180910390a160019150509392505050565b6000600260008373ffffffffffffffffffffffffffffffffffffffff1673ffffffffffffffffffffffffffffffffffffffff16815260200190815260200160002060040160006101000a81548160ff02191690831515021790555050565b60005481565b60026020528060005260406000206000915090508060000160009054906101000a900473ffffffffffffffffffffffffffffffffffffffff1690806001018054600181600116156101000203166002900480601f01602080910402602001604051908101604052809291908181526020018280546001816001161561010002031660029004801561128b5780601f106112605761010080835404028352916020019161128b565b820191906000526020600020905b81548152906001019060200180831161126e57829003601f168201915b505050505090806002018054600181600116156101000203166002900480601f0160208091040260200160405190810160405280929190818152602001828054600181600116156101000203166002900480156113295780601f106112fe57610100808354040283529160200191611329565b820191906000526020600020905b81548152906001019060200180831161130c57829003601f168201915b505050505090806003018054600181600116156101000203166002900480601f0160208091040260200160405190810160405280929190818152602001828054600181600116156101000203166002900480156113c75780601f1061139c576101008083540402835291602001916113c7565b820191906000526020600020905b8154815290600101906020018083116113aa57829003601f168201915b5050505050908060040160009054906101000a900460ff16905085565b828054600181600116156101000203166002900490600052602060002090601f016020900481019282601f1061142557805160ff1916838001178555611453565b82800160010185558215611453579182015b82811115611452578251825591602001919060010190611437565b5b5090506114609190611464565b5090565b61148691905b8082111561148257600081600090555060010161146a565b5090565b905600a165627a7a723058206047df30ab56b30828604efc22cc33aba9f14b4a02c73cedad98e468293beab90029",
  "source": "// SPDX-License-Identifier: MIT\npragma solidity ^0.4.24;\n\ncontract Auth {\n\n    uint public usersCounter = 0;\n\n    struct User \n    {\n        address addr;               // Wallet @\n        string name;    \n        string email;            \n        string password;\n        // string vatId;               // DNI\n        // string ipfsImageCid;        // Image\n        bool isLoggedIn;\n    }\n\n    mapping(uint256 => User) public users;\n    mapping(address => User) public usersByAddr;\n\n    constructor() public \n    {\n        signUp(\"Héctor\", \"hmonpa@gmail.com\", \"pass123456\");\n    }\n\n    event newUser(\n        address addr,\n        string name,\n        string email,\n        string password,\n        bool isLoggedIn\n    );\n\n    function signUp(\n        string _name,\n        string _email,\n        string _password\n    ) public returns (bool) \n    {\n        // require(users[usersCounter].addr != msg.sender);\n        address _address = msg.sender;\n\n        users[usersCounter] = User(_address, _name, _email, _password, false);\n        usersByAddr[_address] = User(_address, _name, _email, _password, false);\n        \n        usersCounter++;\n        emit newUser(_address, _name, _email, _password, false);\n        return true;\n    }\n\n    function signIn(address _address, string memory _password) public returns (bool)\n    {\n        if (\n            keccak256(abi.encodePacked(usersByAddr[_address].password)) \n            == keccak256(abi.encodePacked(_password)) \n            && \n            usersByAddr[_address].addr \n            == _address\n        )\n        {\n            users[usersCounter].isLoggedIn = true;\n            usersByAddr[_address].isLoggedIn = true;\n            return true;\n        } else {\n            return false;\n        }\n    }\n\n    function checkIsUserLogged(uint _usersCounter) public view returns (bool)\n    {\n        return (users[_usersCounter].isLoggedIn);\n    }\n\n    function checkIsUserLoggedByAddr(address _address) public view returns (bool)\n    {\n        return (usersByAddr[_address].isLoggedIn);\n    }\n\n    function logout(uint _usersCounter) public \n    {\n        users[_usersCounter].isLoggedIn = false;\n    }\n\n    function logoutByAddr(address _address) public \n    {\n        usersByAddr[_address].isLoggedIn = false;\n    }\n}",
  "sourcePath": "/home/hector/Sites/TFG/contracts/Auth.sol",
  "compiler": {
    "name": "solc",
    "version": "0.4.24+commit.e67f0147.Emscripten.clang"
  },
  "schemaVersion": "3.4.3",
  "updatedAt": "2021-11-17T16:41:54.224Z",
  "networkType": "ethereum",
  "devdoc": {
    "methods": {}
  },
  "userdoc": {
    "methods": {}
  }
}