{
  "contractName": "Auth",
  "abi": [
    {
      "constant": true,
      "inputs": [
        {
          "name": "",
          "type": "uint256"
        }
      ],
      "name": "users",
      "outputs": [
        {
          "name": "addr",
          "type": "address"
        },
        {
          "name": "name",
          "type": "string"
        },
        {
          "name": "email",
          "type": "string"
        },
        {
          "name": "password",
          "type": "string"
        },
        {
          "name": "isLoggedIn",
          "type": "bool"
        },
        {
          "name": "createdAt",
          "type": "uint256"
        }
      ],
      "payable": false,
      "stateMutability": "view",
      "type": "function"
    },
    {
      "constant": true,
      "inputs": [],
      "name": "usersCounter",
      "outputs": [
        {
          "name": "",
          "type": "uint256"
        }
      ],
      "payable": false,
      "stateMutability": "view",
      "type": "function"
    },
    {
      "constant": true,
      "inputs": [
        {
          "name": "",
          "type": "address"
        }
      ],
      "name": "usersByAddr",
      "outputs": [
        {
          "name": "addr",
          "type": "address"
        },
        {
          "name": "name",
          "type": "string"
        },
        {
          "name": "email",
          "type": "string"
        },
        {
          "name": "password",
          "type": "string"
        },
        {
          "name": "isLoggedIn",
          "type": "bool"
        },
        {
          "name": "createdAt",
          "type": "uint256"
        }
      ],
      "payable": false,
      "stateMutability": "view",
      "type": "function"
    },
    {
      "inputs": [],
      "payable": false,
      "stateMutability": "nonpayable",
      "type": "constructor"
    },
    {
      "anonymous": false,
      "inputs": [
        {
          "indexed": false,
          "name": "addr",
          "type": "address"
        },
        {
          "indexed": false,
          "name": "name",
          "type": "string"
        },
        {
          "indexed": false,
          "name": "email",
          "type": "string"
        },
        {
          "indexed": false,
          "name": "password",
          "type": "string"
        },
        {
          "indexed": false,
          "name": "isLoggedIn",
          "type": "bool"
        },
        {
          "indexed": false,
          "name": "createdAt",
          "type": "uint256"
        }
      ],
      "name": "newUser",
      "type": "event"
    },
    {
      "anonymous": false,
      "inputs": [
        {
          "indexed": false,
          "name": "addr",
          "type": "address"
        },
        {
          "indexed": false,
          "name": "name",
          "type": "string"
        },
        {
          "indexed": false,
          "name": "isLoggedIn",
          "type": "bool"
        }
      ],
      "name": "userLogged",
      "type": "event"
    },
    {
      "constant": false,
      "inputs": [
        {
          "name": "_name",
          "type": "string"
        },
        {
          "name": "_email",
          "type": "string"
        },
        {
          "name": "_password",
          "type": "string"
        }
      ],
      "name": "signUp",
      "outputs": [
        {
          "name": "",
          "type": "bool"
        }
      ],
      "payable": false,
      "stateMutability": "nonpayable",
      "type": "function"
    },
    {
      "constant": false,
      "inputs": [
        {
          "name": "_address",
          "type": "address"
        },
        {
          "name": "_password",
          "type": "string"
        }
      ],
      "name": "signIn",
      "outputs": [
        {
          "name": "",
          "type": "bool"
        }
      ],
      "payable": false,
      "stateMutability": "nonpayable",
      "type": "function"
    },
    {
      "constant": true,
      "inputs": [
        {
          "name": "_address",
          "type": "address"
        }
      ],
      "name": "getIndexFromAddr",
      "outputs": [
        {
          "name": "",
          "type": "uint256"
        }
      ],
      "payable": false,
      "stateMutability": "view",
      "type": "function"
    },
    {
      "constant": true,
      "inputs": [
        {
          "name": "_index",
          "type": "uint256"
        }
      ],
      "name": "getAddrFromIndex",
      "outputs": [
        {
          "name": "",
          "type": "address"
        }
      ],
      "payable": false,
      "stateMutability": "view",
      "type": "function"
    },
    {
      "constant": true,
      "inputs": [
        {
          "name": "_usersCounter",
          "type": "uint256"
        }
      ],
      "name": "checkIsUserLogged",
      "outputs": [
        {
          "name": "",
          "type": "bool"
        }
      ],
      "payable": false,
      "stateMutability": "view",
      "type": "function"
    },
    {
      "constant": true,
      "inputs": [
        {
          "name": "_address",
          "type": "address"
        }
      ],
      "name": "checkIsUserLoggedByAddr",
      "outputs": [
        {
          "name": "",
          "type": "bool"
        }
      ],
      "payable": false,
      "stateMutability": "view",
      "type": "function"
    },
    {
      "constant": false,
      "inputs": [
        {
          "name": "_usersCounter",
          "type": "uint256"
        }
      ],
      "name": "logout",
      "outputs": [],
      "payable": false,
      "stateMutability": "nonpayable",
      "type": "function"
    },
    {
      "constant": false,
      "inputs": [
        {
          "name": "_address",
          "type": "address"
        }
      ],
      "name": "logoutByAddr",
      "outputs": [],
      "payable": false,
      "stateMutability": "nonpayable",
      "type": "function"
    }
  ],
  "bytecode": "0x6080604052600080553480156200001557600080fd5b50620000d16040805190810160405280600781526020017f48c3a963746f72000000000000000000000000000000000000000000000000008152506040805190810160405280601081526020017f686d6f6e706140676d61696c2e636f6d000000000000000000000000000000008152506040805190810160405280600a81526020017f7061737331323334353600000000000000000000000000000000000000000000815250620000d8640100000000026401000000009004565b50620005f5565b60008033905060c0604051908101604052808273ffffffffffffffffffffffffffffffffffffffff16815260200186815260200185815260200184815260200160001515815260200142815250600160008054815260200190815260200160002060008201518160000160006101000a81548173ffffffffffffffffffffffffffffffffffffffff021916908373ffffffffffffffffffffffffffffffffffffffff16021790555060208201518160010190805190602001906200019e92919062000546565b506040820151816002019080519060200190620001bd92919062000546565b506060820151816003019080519060200190620001dc92919062000546565b5060808201518160040160006101000a81548160ff02191690831515021790555060a0820151816005015590505060c0604051908101604052808273ffffffffffffffffffffffffffffffffffffffff16815260200186815260200185815260200184815260200160001515815260200142815250600260008373ffffffffffffffffffffffffffffffffffffffff1673ffffffffffffffffffffffffffffffffffffffff16815260200190815260200160002060008201518160000160006101000a81548173ffffffffffffffffffffffffffffffffffffffff021916908373ffffffffffffffffffffffffffffffffffffffff1602179055506020820151816001019080519060200190620002f592919062000546565b5060408201518160020190805190602001906200031492919062000546565b5060608201518160030190805190602001906200033392919062000546565b5060808201518160040160006101000a81548160ff02191690831515021790555060a0820151816005015590505060008081548092919060010191905055507f6b9d9843528d66d6e196cd0f9d9ea21c6694562a1526932b2b44963a10701afd81868686600042604051808773ffffffffffffffffffffffffffffffffffffffff1673ffffffffffffffffffffffffffffffffffffffff16815260200180602001806020018060200186151515158152602001858152602001848103845289818151815260200191508051906020019080838360005b838110156200042657808201518184015260208101905062000409565b50505050905090810190601f168015620004545780820380516001836020036101000a031916815260200191505b50848103835288818151815260200191508051906020019080838360005b838110156200048f57808201518184015260208101905062000472565b50505050905090810190601f168015620004bd5780820380516001836020036101000a031916815260200191505b50848103825287818151815260200191508051906020019080838360005b83811015620004f8578082015181840152602081019050620004db565b50505050905090810190601f168015620005265780820380516001836020036101000a031916815260200191505b50995050505050505050505060405180910390a160019150509392505050565b828054600181600116156101000203166002900490600052602060002090601f016020900481019282601f106200058957805160ff1916838001178555620005ba565b82800160010185558215620005ba579182015b82811115620005b95782518255916020019190600101906200059c565b5b509050620005c99190620005cd565b5090565b620005f291905b80821115620005ee576000816000905550600101620005d4565b5090565b90565b61184680620006056000396000f3006080604052600436106100af576000357c0100000000000000000000000000000000000000000000000000000000900463ffffffff1680630acee0d5146100b457806321ec1f56146100f95780632c97f16114610154578063365b98b2146101815780635729a86214610344578063ba3d894e146103e5578063cb2b6f141461043c578063cf051d3d14610549578063d67b1b991461058c578063d7b8ada0146105b7578063db25474214610790575b600080fd5b3480156100c057600080fd5b506100df600480360381019080803590602001909291905050506107fd565b604051808215151515815260200191505060405180910390f35b34801561010557600080fd5b5061013a600480360381019080803573ffffffffffffffffffffffffffffffffffffffff16906020019092919050505061082a565b604051808215151515815260200191505060405180910390f35b34801561016057600080fd5b5061017f60048036038101908080359060200190929190505050610883565b005b34801561018d57600080fd5b506101ac600480360381019080803590602001909291905050506108b5565b604051808773ffffffffffffffffffffffffffffffffffffffff1673ffffffffffffffffffffffffffffffffffffffff16815260200180602001806020018060200186151515158152602001858152602001848103845289818151815260200191508051906020019080838360005b8381101561023657808201518184015260208101905061021b565b50505050905090810190601f1680156102635780820380516001836020036101000a031916815260200191505b50848103835288818151815260200191508051906020019080838360005b8381101561029c578082015181840152602081019050610281565b50505050905090810190601f1680156102c95780820380516001836020036101000a031916815260200191505b50848103825287818151815260200191508051906020019080838360005b838110156103025780820151818401526020810190506102e7565b50505050905090810190601f16801561032f5780820380516001836020036101000a031916815260200191505b50995050505050505050505060405180910390f35b34801561035057600080fd5b506103cb600480360381019080803573ffffffffffffffffffffffffffffffffffffffff169060200190929190803590602001908201803590602001908080601f0160208091040260200160405190810160405280939291908181526020018383808284378201915050505050509192919290505050610ae6565b604051808215151515815260200191505060405180910390f35b3480156103f157600080fd5b50610426600480360381019080803573ffffffffffffffffffffffffffffffffffffffff169060200190929190505050610f9b565b6040518082815260200191505060405180910390f35b34801561044857600080fd5b5061052f600480360381019080803590602001908201803590602001908080601f0160208091040260200160405190810160405280939291908181526020018383808284378201915050505050509192919290803590602001908201803590602001908080601f0160208091040260200160405190810160405280939291908181526020018383808284378201915050505050509192919290803590602001908201803590602001908080601f0160208091040260200160405190810160405280939291908181526020018383808284378201915050505050509192919290505050611047565b604051808215151515815260200191505060405180910390f35b34801561055557600080fd5b5061058a600480360381019080803573ffffffffffffffffffffffffffffffffffffffff1690602001909291905050506114a0565b005b34801561059857600080fd5b506105a16114fe565b6040518082815260200191505060405180910390f35b3480156105c357600080fd5b506105f8600480360381019080803573ffffffffffffffffffffffffffffffffffffffff169060200190929190505050611504565b604051808773ffffffffffffffffffffffffffffffffffffffff1673ffffffffffffffffffffffffffffffffffffffff16815260200180602001806020018060200186151515158152602001858152602001848103845289818151815260200191508051906020019080838360005b83811015610682578082015181840152602081019050610667565b50505050905090810190601f1680156106af5780820380516001836020036101000a031916815260200191505b50848103835288818151815260200191508051906020019080838360005b838110156106e85780820151818401526020810190506106cd565b50505050905090810190601f1680156107155780820380516001836020036101000a031916815260200191505b50848103825287818151815260200191508051906020019080838360005b8381101561074e578082015181840152602081019050610733565b50505050905090810190601f16801561077b5780820380516001836020036101000a031916815260200191505b50995050505050505050505060405180910390f35b34801561079c57600080fd5b506107bb60048036038101908080359060200190929190505050611735565b604051808273ffffffffffffffffffffffffffffffffffffffff1673ffffffffffffffffffffffffffffffffffffffff16815260200191505060405180910390f35b60006001600083815260200190815260200160002060040160009054906101000a900460ff169050919050565b6000600260008373ffffffffffffffffffffffffffffffffffffffff1673ffffffffffffffffffffffffffffffffffffffff16815260200190815260200160002060040160009054906101000a900460ff169050919050565b60006001600083815260200190815260200160002060040160006101000a81548160ff02191690831515021790555050565b60016020528060005260406000206000915090508060000160009054906101000a900473ffffffffffffffffffffffffffffffffffffffff1690806001018054600181600116156101000203166002900480601f0160208091040260200160405190810160405280929190818152602001828054600181600116156101000203166002900480156109875780601f1061095c57610100808354040283529160200191610987565b820191906000526020600020905b81548152906001019060200180831161096a57829003601f168201915b505050505090806002018054600181600116156101000203166002900480601f016020809104026020016040519081016040528092919081815260200182805460018160011615610100020316600290048015610a255780601f106109fa57610100808354040283529160200191610a25565b820191906000526020600020905b815481529060010190602001808311610a0857829003601f168201915b505050505090806003018054600181600116156101000203166002900480601f016020809104026020016040519081016040528092919081815260200182805460018160011615610100020316600290048015610ac35780601f10610a9857610100808354040283529160200191610ac3565b820191906000526020600020905b815481529060010190602001808311610aa657829003601f168201915b5050505050908060040160009054906101000a900460ff16908060050154905086565b6000816040516020018082805190602001908083835b602083101515610b215780518252602082019150602081019050602083039250610afc565b6001836020036101000a0380198251168184511680821785525050505050509050019150506040516020818303038152906040526040518082805190602001908083835b602083101515610b8a5780518252602082019150602081019050602083039250610b65565b6001836020036101000a038019825116818451168082178552505050505050905001915050604051809103902060001916600260008573ffffffffffffffffffffffffffffffffffffffff1673ffffffffffffffffffffffffffffffffffffffff1681526020019081526020016000206003016040516020018082805460018160011615610100020316600290048015610c5b5780601f10610c39576101008083540402835291820191610c5b565b820191906000526020600020905b815481529060010190602001808311610c47575b50509150506040516020818303038152906040526040518082805190602001908083835b602083101515610ca45780518252602082019150602081019050602083039250610c7f565b6001836020036101000a038019825116818451168082178552505050505050905001915050604051809103902060001916148015610d6f57508273ffffffffffffffffffffffffffffffffffffffff16600260008573ffffffffffffffffffffffffffffffffffffffff1673ffffffffffffffffffffffffffffffffffffffff16815260200190815260200160002060000160009054906101000a900473ffffffffffffffffffffffffffffffffffffffff1673ffffffffffffffffffffffffffffffffffffffff16145b15610f905760018060008054815260200190815260200160002060040160006101000a81548160ff0219169083151502179055506001600260008573ffffffffffffffffffffffffffffffffffffffff1673ffffffffffffffffffffffffffffffffffffffff16815260200190815260200160002060040160006101000a81548160ff0219169083151502179055507f1d12c37d74928b8666c4b426ccbfbefcf199afa093f56681360147bf1223ad7983600260008673ffffffffffffffffffffffffffffffffffffffff1673ffffffffffffffffffffffffffffffffffffffff168152602001908152602001600020600101600260008773ffffffffffffffffffffffffffffffffffffffff1673ffffffffffffffffffffffffffffffffffffffff16815260200190815260200160002060040160009054906101000a900460ff16604051808473ffffffffffffffffffffffffffffffffffffffff1673ffffffffffffffffffffffffffffffffffffffff1681526020018060200183151515158152602001828103825284818154600181600116156101000203166002900481526020019150805460018160011615610100020316600290048015610f775780601f10610f4c57610100808354040283529160200191610f77565b820191906000526020600020905b815481529060010190602001808311610f5a57829003601f168201915b505094505050505060405180910390a160019050610f95565b600090505b92915050565b600080600090505b60005481101561102d57600160008054815260200190815260200160002060000160009054906101000a900473ffffffffffffffffffffffffffffffffffffffff1673ffffffffffffffffffffffffffffffffffffffff168373ffffffffffffffffffffffffffffffffffffffff16141561102057809150611041565b8080600101915050610fa3565b6000548114156110405760009150611041565b5b50919050565b60008033905060c0604051908101604052808273ffffffffffffffffffffffffffffffffffffffff16815260200186815260200185815260200184815260200160001515815260200142815250600160008054815260200190815260200160002060008201518160000160006101000a81548173ffffffffffffffffffffffffffffffffffffffff021916908373ffffffffffffffffffffffffffffffffffffffff160217905550602082015181600101908051906020019061110b929190611775565b506040820151816002019080519060200190611128929190611775565b506060820151816003019080519060200190611145929190611775565b5060808201518160040160006101000a81548160ff02191690831515021790555060a0820151816005015590505060c0604051908101604052808273ffffffffffffffffffffffffffffffffffffffff16815260200186815260200185815260200184815260200160001515815260200142815250600260008373ffffffffffffffffffffffffffffffffffffffff1673ffffffffffffffffffffffffffffffffffffffff16815260200190815260200160002060008201518160000160006101000a81548173ffffffffffffffffffffffffffffffffffffffff021916908373ffffffffffffffffffffffffffffffffffffffff160217905550602082015181600101908051906020019061125c929190611775565b506040820151816002019080519060200190611279929190611775565b506060820151816003019080519060200190611296929190611775565b5060808201518160040160006101000a81548160ff02191690831515021790555060a0820151816005015590505060008081548092919060010191905055507f6b9d9843528d66d6e196cd0f9d9ea21c6694562a1526932b2b44963a10701afd81868686600042604051808773ffffffffffffffffffffffffffffffffffffffff1673ffffffffffffffffffffffffffffffffffffffff16815260200180602001806020018060200186151515158152602001858152602001848103845289818151815260200191508051906020019080838360005b8381101561138757808201518184015260208101905061136c565b50505050905090810190601f1680156113b45780820380516001836020036101000a031916815260200191505b50848103835288818151815260200191508051906020019080838360005b838110156113ed5780820151818401526020810190506113d2565b50505050905090810190601f16801561141a5780820380516001836020036101000a031916815260200191505b50848103825287818151815260200191508051906020019080838360005b83811015611453578082015181840152602081019050611438565b50505050905090810190601f1680156114805780820380516001836020036101000a031916815260200191505b50995050505050505050505060405180910390a160019150509392505050565b6000600260008373ffffffffffffffffffffffffffffffffffffffff1673ffffffffffffffffffffffffffffffffffffffff16815260200190815260200160002060040160006101000a81548160ff02191690831515021790555050565b60005481565b60026020528060005260406000206000915090508060000160009054906101000a900473ffffffffffffffffffffffffffffffffffffffff1690806001018054600181600116156101000203166002900480601f0160208091040260200160405190810160405280929190818152602001828054600181600116156101000203166002900480156115d65780601f106115ab576101008083540402835291602001916115d6565b820191906000526020600020905b8154815290600101906020018083116115b957829003601f168201915b505050505090806002018054600181600116156101000203166002900480601f0160208091040260200160405190810160405280929190818152602001828054600181600116156101000203166002900480156116745780601f1061164957610100808354040283529160200191611674565b820191906000526020600020905b81548152906001019060200180831161165757829003601f168201915b505050505090806003018054600181600116156101000203166002900480601f0160208091040260200160405190810160405280929190818152602001828054600181600116156101000203166002900480156117125780601f106116e757610100808354040283529160200191611712565b820191906000526020600020905b8154815290600101906020018083116116f557829003601f168201915b5050505050908060040160009054906101000a900460ff16908060050154905086565b60006001600083815260200190815260200160002060000160009054906101000a900473ffffffffffffffffffffffffffffffffffffffff169050919050565b828054600181600116156101000203166002900490600052602060002090601f016020900481019282601f106117b657805160ff19168380011785556117e4565b828001600101855582156117e4579182015b828111156117e35782518255916020019190600101906117c8565b5b5090506117f191906117f5565b5090565b61181791905b808211156118135760008160009055506001016117fb565b5090565b905600a165627a7a723058200cde80f45cb81e59fd596ef3ec489098560bc7bbf18c9dd852751afafc6cc8d30029",
  "source": "// SPDX-License-Identifier: MIT\npragma solidity ^0.4.24;\n\ncontract Auth {\n\n    uint public usersCounter = 0;\n\n    struct User \n    {\n        address addr;                   // Wallet @\n        string name;    \n        string email;            \n        string password;\n        // string vatId;                // DNI\n        // string ipfsImageCid;         // Image\n        bool isLoggedIn;\n        uint256 createdAt;\n    }\n\n    // ----------------------- MAPPINGS -----------------------\n    mapping(uint256 => User) public users;\n    mapping(address => User) public usersByAddr;\n\n    constructor() public \n    {\n        // Register first user\n        signUp(\"Héctor\", \"hmonpa@gmail.com\", \"pass123456\");\n    }\n\n    event newUser(\n        address addr,\n        string name,\n        string email,\n        string password,\n        bool isLoggedIn,\n        uint256 createdAt\n    );\n\n    event userLogged(\n        address addr,\n        string name,\n        bool isLoggedIn\n    );\n\n    // Register\n    function signUp(\n        string _name,\n        string _email,\n        string _password\n    ) public returns (bool) \n    {\n        address _address = msg.sender;\n\n        users[usersCounter]     = User(_address, _name, _email, _password, false, block.timestamp);\n        usersByAddr[_address]   = User(_address, _name, _email, _password, false, block.timestamp);\n        \n        usersCounter++;\n        emit newUser(_address, _name, _email, _password, false, block.timestamp);\n        return true;\n    }\n\n    // Login\n    function signIn(address _address, string memory _password) public returns (bool)\n    {\n        if (keccak256(abi.encodePacked(usersByAddr[_address].password)) \n            == keccak256(abi.encodePacked(_password)) \n            && \n            usersByAddr[_address].addr == _address)\n        {\n            users[usersCounter].isLoggedIn      = true;\n            usersByAddr[_address].isLoggedIn   = true;\n            emit userLogged(_address, usersByAddr[_address].name, usersByAddr[_address].isLoggedIn);\n            \n            return true;\n        } else {\n            return false;\n        }\n    }\n\n    // Get index from @\n    function getIndexFromAddr(address _address) public view returns (uint)\n    {\n        for (uint i = 0; i < usersCounter; i++)\n        {\n            if (_address == users[usersCounter].addr) return i;\n        }\n        if (i == usersCounter) return 0;\n    }\n\n    // Get @ from index\n    function getAddrFromIndex(uint _index) public view returns (address)\n    {\n        return users[_index].addr;\n    }\n\n    // Checking login status by index\n    function checkIsUserLogged(uint _usersCounter) public view returns (bool)\n    {\n        return (users[_usersCounter].isLoggedIn);\n    }\n\n    // Checking login status by @\n    function checkIsUserLoggedByAddr(address _address) public view returns (bool)\n    {\n        return (usersByAddr[_address].isLoggedIn);\n    }\n\n    // Logout user by index\n    function logout(uint _usersCounter) public \n    {\n        users[_usersCounter].isLoggedIn = false;\n    }\n\n    // Logout user by @\n    function logoutByAddr(address _address) public \n    {\n        usersByAddr[_address].isLoggedIn = false;\n    }\n\n\n}",
  "sourcePath": "/home/hector/Sites/TFG/contracts/Auth.sol",
  "compiler": {
    "name": "solc",
    "version": "0.4.24+commit.e67f0147.Emscripten.clang"
  },
  "schemaVersion": "3.4.3",
  "updatedAt": "2021-11-18T07:16:39.341Z",
  "networkType": "ethereum",
  "devdoc": {
    "methods": {}
  },
  "userdoc": {
    "methods": {}
  }
}