{
  "contractName": "Auth",
  "abi": [
    {
      "constant": true,
      "inputs": [
        {
          "name": "",
          "type": "address"
        }
      ],
      "name": "users",
      "outputs": [
        {
          "name": "addr",
          "type": "address"
        },
        {
          "name": "name",
          "type": "string"
        },
        {
          "name": "password",
          "type": "string"
        },
        {
          "name": "isLoggedIn",
          "type": "bool"
        }
      ],
      "payable": false,
      "stateMutability": "view",
      "type": "function"
    },
    {
      "constant": true,
      "inputs": [],
      "name": "usersCounter",
      "outputs": [
        {
          "name": "",
          "type": "uint256"
        }
      ],
      "payable": false,
      "stateMutability": "view",
      "type": "function"
    },
    {
      "inputs": [],
      "payable": false,
      "stateMutability": "nonpayable",
      "type": "constructor"
    },
    {
      "anonymous": false,
      "inputs": [
        {
          "indexed": false,
          "name": "addr",
          "type": "address"
        },
        {
          "indexed": false,
          "name": "name",
          "type": "string"
        },
        {
          "indexed": false,
          "name": "password",
          "type": "string"
        },
        {
          "indexed": false,
          "name": "isLoggedIn",
          "type": "bool"
        }
      ],
      "name": "newUser",
      "type": "event"
    },
    {
      "constant": false,
      "inputs": [
        {
          "name": "_address",
          "type": "address"
        },
        {
          "name": "_name",
          "type": "string"
        },
        {
          "name": "_password",
          "type": "string"
        }
      ],
      "name": "signUp",
      "outputs": [
        {
          "name": "",
          "type": "bool"
        }
      ],
      "payable": false,
      "stateMutability": "nonpayable",
      "type": "function"
    },
    {
      "constant": false,
      "inputs": [
        {
          "name": "_address",
          "type": "address"
        },
        {
          "name": "_password",
          "type": "string"
        }
      ],
      "name": "signIn",
      "outputs": [
        {
          "name": "",
          "type": "bool"
        }
      ],
      "payable": false,
      "stateMutability": "nonpayable",
      "type": "function"
    },
    {
      "constant": true,
      "inputs": [
        {
          "name": "_address",
          "type": "address"
        }
      ],
      "name": "checkIsUserLogged",
      "outputs": [
        {
          "name": "",
          "type": "bool"
        },
        {
          "name": "",
          "type": "string"
        }
      ],
      "payable": false,
      "stateMutability": "view",
      "type": "function"
    },
    {
      "constant": false,
      "inputs": [
        {
          "name": "_address",
          "type": "address"
        }
      ],
      "name": "logout",
      "outputs": [],
      "payable": false,
      "stateMutability": "nonpayable",
      "type": "function"
    }
  ],
  "bytecode": "0x6080604052600080553480156200001557600080fd5b506200009c336040805190810160405280600781526020017f48c3a963746f72000000000000000000000000000000000000000000000000008152506040805190810160405280600981526020017f7061737331323334350000000000000000000000000000000000000000000000815250620000b4640100000000026401000000009004565b50600080815480929190600101919050555062000491565b60003373ffffffffffffffffffffffffffffffffffffffff16600160008673ffffffffffffffffffffffffffffffffffffffff1673ffffffffffffffffffffffffffffffffffffffff16815260200190815260200160002060000160009054906101000a900473ffffffffffffffffffffffffffffffffffffffff1673ffffffffffffffffffffffffffffffffffffffff16141515156200015457600080fd5b60008081548092919060010191905055506080604051908101604052808573ffffffffffffffffffffffffffffffffffffffff16815260200184815260200183815260200160001515815250600160008673ffffffffffffffffffffffffffffffffffffffff1673ffffffffffffffffffffffffffffffffffffffff16815260200190815260200160002060008201518160000160006101000a81548173ffffffffffffffffffffffffffffffffffffffff021916908373ffffffffffffffffffffffffffffffffffffffff160217905550602082015181600101908051906020019062000244929190620003e2565b50604082015181600201908051906020019062000263929190620003e2565b5060608201518160030160006101000a81548160ff0219169083151502179055509050507f11c54c56beb45ab62adb0e98d93699bae1fea254e2573187b8fc4a7de9fe7c2d8484846000604051808573ffffffffffffffffffffffffffffffffffffffff1673ffffffffffffffffffffffffffffffffffffffff168152602001806020018060200184151515158152602001838103835286818151815260200191508051906020019080838360005b838110156200032f57808201518184015260208101905062000312565b50505050905090810190601f1680156200035d5780820380516001836020036101000a031916815260200191505b50838103825285818151815260200191508051906020019080838360005b83811015620003985780820151818401526020810190506200037b565b50505050905090810190601f168015620003c65780820380516001836020036101000a031916815260200191505b50965050505050505060405180910390a1600190509392505050565b828054600181600116156101000203166002900490600052602060002090601f016020900481019282601f106200042557805160ff191683800117855562000456565b8280016001018555821562000456579182015b828111156200045557825182559160200191906001019062000438565b5b50905062000465919062000469565b5090565b6200048e91905b808211156200048a57600081600090555060010162000470565b5090565b90565b610e7180620004a16000396000f300608060405260043610610078576000357c0100000000000000000000000000000000000000000000000000000000900463ffffffff168063297f7b391461007d5780635729a86214610144578063a87430ba146101e5578063a9b4d9191461034b578063cc51f9b914610432578063d67b1b9914610475575b600080fd5b34801561008957600080fd5b506100be600480360381019080803573ffffffffffffffffffffffffffffffffffffffff1690602001909291905050506104a0565b604051808315151515815260200180602001828103825283818151815260200191508051906020019080838360005b838110156101085780820151818401526020810190506100ed565b50505050905090810190601f1680156101355780820380516001836020036101000a031916815260200191505b50935050505060405180910390f35b34801561015057600080fd5b506101cb600480360381019080803573ffffffffffffffffffffffffffffffffffffffff169060200190929190803590602001908201803590602001908080601f01602080910402602001604051908101604052809392919081815260200183838082843782019150505050505091929192905050506105db565b604051808215151515815260200191505060405180910390f35b3480156101f157600080fd5b50610226600480360381019080803573ffffffffffffffffffffffffffffffffffffffff16906020019092919050505061088c565b604051808573ffffffffffffffffffffffffffffffffffffffff1673ffffffffffffffffffffffffffffffffffffffff168152602001806020018060200184151515158152602001838103835286818151815260200191508051906020019080838360005b838110156102a657808201518184015260208101905061028b565b50505050905090810190601f1680156102d35780820380516001836020036101000a031916815260200191505b50838103825285818151815260200191508051906020019080838360005b8381101561030c5780820151818401526020810190506102f1565b50505050905090810190601f1680156103395780820380516001836020036101000a031916815260200191505b50965050505050505060405180910390f35b34801561035757600080fd5b50610418600480360381019080803573ffffffffffffffffffffffffffffffffffffffff169060200190929190803590602001908201803590602001908080601f0160208091040260200160405190810160405280939291908181526020018383808284378201915050505050509192919290803590602001908201803590602001908080601f0160208091040260200160405190810160405280939291908181526020018383808284378201915050505050509192919290505050610a19565b604051808215151515815260200191505060405180910390f35b34801561043e57600080fd5b50610473600480360381019080803573ffffffffffffffffffffffffffffffffffffffff169060200190929190505050610d3c565b005b34801561048157600080fd5b5061048a610d9a565b6040518082815260200191505060405180910390f35b60006060600160008473ffffffffffffffffffffffffffffffffffffffff1673ffffffffffffffffffffffffffffffffffffffff16815260200190815260200160002060030160009054906101000a900460ff16600160008573ffffffffffffffffffffffffffffffffffffffff1673ffffffffffffffffffffffffffffffffffffffff168152602001908152602001600020600101808054600181600116156101000203166002900480601f0160208091040260200160405190810160405280929190818152602001828054600181600116156101000203166002900480156105cb5780601f106105a0576101008083540402835291602001916105cb565b820191906000526020600020905b8154815290600101906020018083116105ae57829003601f168201915b5050505050905091509150915091565b6000816040516020018082805190602001908083835b60208310151561061657805182526020820191506020810190506020830392506105f1565b6001836020036101000a0380198251168184511680821785525050505050509050019150506040516020818303038152906040526040518082805190602001908083835b60208310151561067f578051825260208201915060208101905060208303925061065a565b6001836020036101000a038019825116818451168082178552505050505050905001915050604051809103902060001916600160008573ffffffffffffffffffffffffffffffffffffffff1673ffffffffffffffffffffffffffffffffffffffff16815260200190815260200160002060020160405160200180828054600181600116156101000203166002900480156107505780601f1061072e576101008083540402835291820191610750565b820191906000526020600020905b81548152906001019060200180831161073c575b50509150506040516020818303038152906040526040518082805190602001908083835b6020831015156107995780518252602082019150602081019050602083039250610774565b6001836020036101000a03801982511681845116808217855250505050505090500191505060405180910390206000191614156108815760018060008573ffffffffffffffffffffffffffffffffffffffff1673ffffffffffffffffffffffffffffffffffffffff16815260200190815260200160002060030160006101000a81548160ff021916908315150217905550600160008473ffffffffffffffffffffffffffffffffffffffff1673ffffffffffffffffffffffffffffffffffffffff16815260200190815260200160002060030160009054906101000a900460ff169050610886565b600090505b92915050565b60016020528060005260406000206000915090508060000160009054906101000a900473ffffffffffffffffffffffffffffffffffffffff1690806001018054600181600116156101000203166002900480601f01602080910402602001604051908101604052809291908181526020018280546001816001161561010002031660029004801561095e5780601f106109335761010080835404028352916020019161095e565b820191906000526020600020905b81548152906001019060200180831161094157829003601f168201915b505050505090806002018054600181600116156101000203166002900480601f0160208091040260200160405190810160405280929190818152602001828054600181600116156101000203166002900480156109fc5780601f106109d1576101008083540402835291602001916109fc565b820191906000526020600020905b8154815290600101906020018083116109df57829003601f168201915b5050505050908060030160009054906101000a900460ff16905084565b60003373ffffffffffffffffffffffffffffffffffffffff16600160008673ffffffffffffffffffffffffffffffffffffffff1673ffffffffffffffffffffffffffffffffffffffff16815260200190815260200160002060000160009054906101000a900473ffffffffffffffffffffffffffffffffffffffff1673ffffffffffffffffffffffffffffffffffffffff1614151515610ab857600080fd5b60008081548092919060010191905055506080604051908101604052808573ffffffffffffffffffffffffffffffffffffffff16815260200184815260200183815260200160001515815250600160008673ffffffffffffffffffffffffffffffffffffffff1673ffffffffffffffffffffffffffffffffffffffff16815260200190815260200160002060008201518160000160006101000a81548173ffffffffffffffffffffffffffffffffffffffff021916908373ffffffffffffffffffffffffffffffffffffffff1602179055506020820151816001019080519060200190610ba6929190610da0565b506040820151816002019080519060200190610bc3929190610da0565b5060608201518160030160006101000a81548160ff0219169083151502179055509050507f11c54c56beb45ab62adb0e98d93699bae1fea254e2573187b8fc4a7de9fe7c2d8484846000604051808573ffffffffffffffffffffffffffffffffffffffff1673ffffffffffffffffffffffffffffffffffffffff168152602001806020018060200184151515158152602001838103835286818151815260200191508051906020019080838360005b83811015610c8d578082015181840152602081019050610c72565b50505050905090810190601f168015610cba5780820380516001836020036101000a031916815260200191505b50838103825285818151815260200191508051906020019080838360005b83811015610cf3578082015181840152602081019050610cd8565b50505050905090810190601f168015610d205780820380516001836020036101000a031916815260200191505b50965050505050505060405180910390a1600190509392505050565b6000600160008373ffffffffffffffffffffffffffffffffffffffff1673ffffffffffffffffffffffffffffffffffffffff16815260200190815260200160002060030160006101000a81548160ff02191690831515021790555050565b60005481565b828054600181600116156101000203166002900490600052602060002090601f016020900481019282601f10610de157805160ff1916838001178555610e0f565b82800160010185558215610e0f579182015b82811115610e0e578251825591602001919060010190610df3565b5b509050610e1c9190610e20565b5090565b610e4291905b80821115610e3e576000816000905550600101610e26565b5090565b905600a165627a7a723058203bbc7b72aebe8c30ee30a2f1711c364f97b6056528b0acaf630d61583a0273b60029",
  "source": "// SPDX-License-Identifier: MIT\npragma solidity ^0.4.24;\n\ncontract Auth {\n\n    uint public usersCounter = 0;\n\n    struct User \n    {\n        address addr;               // Wallet @\n        string name;                \n        string password;\n        // string vatId;               // DNI\n        // string ipfsImageCid;        // Image\n        bool isLoggedIn;\n    }\n\n    mapping(address => User) public users;\n\n    constructor() public \n    {\n        signUp(msg.sender, \"Héctor\", \"pass12345\");\n        usersCounter++;\n    }\n\n    event newUser(\n        address addr,\n        string name,\n        string password,\n        bool isLoggedIn\n    );\n\n    function signUp(\n        address _address,\n        string memory _name,\n        string memory _password\n    ) public returns (bool) \n    {\n        require(users[_address].addr != msg.sender);\n\n        usersCounter++;\n        users[_address] = User(_address, _name, _password, false);\n        emit newUser(_address, _name, _password, false);\n        return true;\n    }\n\n    function signIn(address _address, string memory _password) public returns (bool)\n    {\n        if (keccak256(abi.encodePacked(users[_address].password)) \n        == keccak256(abi.encodePacked(_password)))\n        {\n            users[_address].isLoggedIn = true;\n            return users[_address].isLoggedIn;\n        } else {\n            return false;\n        }\n    }\n\n    function checkIsUserLogged(address _address) public view returns (bool, string memory)\n    {\n        return (users[_address].isLoggedIn, users[_address].name);\n    }\n\n    function logout(address _address) public \n    {\n        users[_address].isLoggedIn = false;\n    }\n}",
  "sourcePath": "/home/hector/Sites/TFG/contracts/Auth.sol",
  "compiler": {
    "name": "solc",
    "version": "0.4.24+commit.e67f0147.Emscripten.clang"
  },
  "schemaVersion": "3.4.3",
  "updatedAt": "2021-11-16T07:14:01.253Z",
  "networkType": "ethereum",
  "devdoc": {
    "methods": {}
  },
  "userdoc": {
    "methods": {}
  }
}