{
  "contractName": "Properties",
  "abi": [
    {
      "constant": true,
      "inputs": [],
      "name": "propertyCounter",
      "outputs": [
        {
          "name": "",
          "type": "uint256"
        }
      ],
      "payable": false,
      "stateMutability": "view",
      "type": "function"
    },
    {
      "constant": true,
      "inputs": [
        {
          "name": "",
          "type": "uint256"
        }
      ],
      "name": "properties",
      "outputs": [
        {
          "name": "id",
          "type": "uint256"
        },
        {
          "name": "owner",
          "type": "address"
        },
        {
          "name": "city",
          "type": "string"
        },
        {
          "name": "price",
          "type": "uint256"
        },
        {
          "name": "isSelled",
          "type": "bool"
        },
        {
          "name": "createdAt",
          "type": "uint256"
        }
      ],
      "payable": false,
      "stateMutability": "view",
      "type": "function"
    },
    {
      "inputs": [],
      "payable": false,
      "stateMutability": "nonpayable",
      "type": "constructor"
    },
    {
      "anonymous": false,
      "inputs": [
        {
          "indexed": false,
          "name": "id",
          "type": "uint256"
        },
        {
          "indexed": false,
          "name": "owner",
          "type": "address"
        },
        {
          "indexed": false,
          "name": "city",
          "type": "string"
        },
        {
          "indexed": false,
          "name": "price",
          "type": "uint256"
        },
        {
          "indexed": false,
          "name": "isSelled",
          "type": "bool"
        },
        {
          "indexed": false,
          "name": "createdAt",
          "type": "uint256"
        }
      ],
      "name": "PropertyCreated",
      "type": "event"
    },
    {
      "anonymous": false,
      "inputs": [
        {
          "indexed": false,
          "name": "id",
          "type": "uint256"
        },
        {
          "indexed": false,
          "name": "isSelled",
          "type": "bool"
        }
      ],
      "name": "isPropertySelled",
      "type": "event"
    },
    {
      "constant": false,
      "inputs": [
        {
          "name": "_city",
          "type": "string"
        },
        {
          "name": "_price",
          "type": "uint256"
        }
      ],
      "name": "uploadProperty",
      "outputs": [],
      "payable": true,
      "stateMutability": "payable",
      "type": "function"
    },
    {
      "constant": true,
      "inputs": [
        {
          "name": "_index",
          "type": "uint256"
        }
      ],
      "name": "getPropertyFromIndex",
      "outputs": [
        {
          "name": "",
          "type": "address"
        }
      ],
      "payable": false,
      "stateMutability": "view",
      "type": "function"
    },
    {
      "constant": true,
      "inputs": [
        {
          "name": "_address",
          "type": "address"
        }
      ],
      "name": "getPropertiesFromOwner",
      "outputs": [
        {
          "name": "",
          "type": "uint256[]"
        }
      ],
      "payable": false,
      "stateMutability": "view",
      "type": "function"
    },
    {
      "constant": false,
      "inputs": [
        {
          "name": "_i",
          "type": "uint256"
        }
      ],
      "name": "removeProperty",
      "outputs": [],
      "payable": false,
      "stateMutability": "nonpayable",
      "type": "function"
    }
  ],
  "bytecode": "0x6080604052600080553480156200001557600080fd5b50620000696040805190810160405280600a81526020017f56696c61646563616e7300000000000000000000000000000000000000000000815250620249f06200006f640100000000026401000000009004565b62000445565b60c06040519081016040528062000094620002ae640100000000026401000000009004565b81526020013373ffffffffffffffffffffffffffffffffffffffff1681526020018381526020018281526020016000151581526020014281525060016000805481526020019081526020016000206000820151816000015560208201518160010160006101000a81548173ffffffffffffffffffffffffffffffffffffffff021916908373ffffffffffffffffffffffffffffffffffffffff16021790555060408201518160020190805190602001906200015192919062000396565b506060820151816003015560808201518160040160006101000a81548160ff02191690831515021790555060a082015181600501559050507f3e4fce1c3fb6d8a6746a5f745868980b6b7af130e470eccaa90dafc39007c233620001c3620002ae640100000000026401000000009004565b338484600042604051808781526020018673ffffffffffffffffffffffffffffffffffffffff1673ffffffffffffffffffffffffffffffffffffffff1681526020018060200185815260200184151515158152602001838152602001828103825286818151815260200191508051906020019080838360005b83811015620002595780820151818401526020810190506200023c565b50505050905090810190601f168015620002875780820380516001836020036101000a031916815260200191505b5097505050505050505060405180910390a160008081548092919060010191905055505050565b6000614e20444233604051602001808481526020018381526020018273ffffffffffffffffffffffffffffffffffffffff1673ffffffffffffffffffffffffffffffffffffffff166c0100000000000000000000000002815260140193505050506040516020818303038152906040526040518082805190602001908083835b6020831015156200035557805182526020820191506020810190506020830392506200032e565b6001836020036101000a0380198251168184511680821785525050505050509050019150506040518091039020600190048115156200039057fe5b06905090565b828054600181600116156101000203166002900490600052602060002090601f016020900481019282601f10620003d957805160ff19168380011785556200040a565b828001600101855582156200040a579182015b8281111562000409578251825591602001919060010190620003ec565b5b5090506200041991906200041d565b5090565b6200044291905b808211156200043e57600081600090555060010162000424565b5090565b90565b610bde80620004556000396000f300608060405260043610610078576000357c0100000000000000000000000000000000000000000000000000000000900463ffffffff168063828d25061461007d5780638675425f146100e3578063bc43d06f1461017b578063d090e47e146101a8578063f3bdae2d146101d3578063f7b1080814610240575b600080fd5b6100e1600480360381019080803590602001908201803590602001908080601f016020809104026020016040519081016040528093929190818152602001838380828437820191505050505050919291929080359060200190929190505050610339565b005b3480156100ef57600080fd5b50610124600480360381019080803573ffffffffffffffffffffffffffffffffffffffff169060200190929190505050610551565b6040518080602001828103825283818151815260200191508051906020019060200280838360005b8381101561016757808201518184015260208101905061014c565b505050509050019250505060405180910390f35b34801561018757600080fd5b506101a66004803603810190808035906020019092919050505061060f565b005b3480156101b457600080fd5b506101bd61087e565b6040518082815260200191505060405180910390f35b3480156101df57600080fd5b506101fe60048036038101908080359060200190929190505050610884565b604051808273ffffffffffffffffffffffffffffffffffffffff1673ffffffffffffffffffffffffffffffffffffffff16815260200191505060405180910390f35b34801561024c57600080fd5b5061026b600480360381019080803590602001909291905050506108d8565b604051808781526020018673ffffffffffffffffffffffffffffffffffffffff1673ffffffffffffffffffffffffffffffffffffffff1681526020018060200185815260200184151515158152602001838152602001828103825286818151815260200191508051906020019080838360005b838110156102f95780820151818401526020810190506102de565b50505050905090810190601f1680156103265780820380516001836020036101000a031916815260200191505b5097505050505050505060405180910390f35b60c06040519081016040528061034d6109d9565b81526020013373ffffffffffffffffffffffffffffffffffffffff1681526020018381526020018281526020016000151581526020014281525060016000805481526020019081526020016000206000820151816000015560208201518160010160006101000a81548173ffffffffffffffffffffffffffffffffffffffff021916908373ffffffffffffffffffffffffffffffffffffffff1602179055506040820151816002019080519060200190610408929190610abe565b506060820151816003015560808201518160040160006101000a81548160ff02191690831515021790555060a082015181600501559050507f3e4fce1c3fb6d8a6746a5f745868980b6b7af130e470eccaa90dafc39007c2336104696109d9565b338484600042604051808781526020018673ffffffffffffffffffffffffffffffffffffffff1673ffffffffffffffffffffffffffffffffffffffff1681526020018060200185815260200184151515158152602001838152602001828103825286818151815260200191508051906020019080838360005b838110156104fd5780820151818401526020810190506104e2565b50505050905090810190601f16801561052a5780820380516001836020036101000a031916815260200191505b5097505050505050505060405180910390a160008081548092919060010191905055505050565b6060600080600090505b600054811015610608576001600082815260200190815260200160002060010160009054906101000a900473ffffffffffffffffffffffffffffffffffffffff1673ffffffffffffffffffffffffffffffffffffffff168473ffffffffffffffffffffffffffffffffffffffff1614156105fb57818190806001815401808255809150509060018203906000526020600020016000909192909190915055505b808060010191505061055b565b5050919050565b610617610b3e565b6001600083815260200190815260200160002060c06040519081016040529081600082015481526020016001820160009054906101000a900473ffffffffffffffffffffffffffffffffffffffff1673ffffffffffffffffffffffffffffffffffffffff1673ffffffffffffffffffffffffffffffffffffffff168152602001600282018054600181600116156101000203166002900480601f01602080910402602001604051908101604052809291908181526020018280546001816001161561010002031660029004801561072f5780601f106107045761010080835404028352916020019161072f565b820191906000526020600020905b81548152906001019060200180831161071257829003601f168201915b50505050508152602001600382015481526020016004820160009054906101000a900460ff161515151581526020016005820154815250509050600181608001901515908115158152505080600160008481526020019081526020016000206000820151816000015560208201518160010160006101000a81548173ffffffffffffffffffffffffffffffffffffffff021916908373ffffffffffffffffffffffffffffffffffffffff16021790555060408201518160020190805190602001906107fb929190610abe565b506060820151816003015560808201518160040160006101000a81548160ff02191690831515021790555060a082015181600501559050507f201cb7d1ee086ec886eb18a6eac6473ee8d50536a4873397f808932f09eb0f9e82826080015160405180838152602001821515151581526020019250505060405180910390a15050565b60005481565b60008054821115156108ce576001600083815260200190815260200160002060010160009054906101000a900473ffffffffffffffffffffffffffffffffffffffff1690506108d3565b600090505b919050565b60016020528060005260406000206000915090508060000154908060010160009054906101000a900473ffffffffffffffffffffffffffffffffffffffff1690806002018054600181600116156101000203166002900480601f0160208091040260200160405190810160405280929190818152602001828054600181600116156101000203166002900480156109b05780601f10610985576101008083540402835291602001916109b0565b820191906000526020600020905b81548152906001019060200180831161099357829003601f168201915b5050505050908060030154908060040160009054906101000a900460ff16908060050154905086565b6000614e20444233604051602001808481526020018381526020018273ffffffffffffffffffffffffffffffffffffffff1673ffffffffffffffffffffffffffffffffffffffff166c0100000000000000000000000002815260140193505050506040516020818303038152906040526040518082805190602001908083835b602083101515610a7e5780518252602082019150602081019050602083039250610a59565b6001836020036101000a038019825116818451168082178552505050505050905001915050604051809103902060019004811515610ab857fe5b06905090565b828054600181600116156101000203166002900490600052602060002090601f016020900481019282601f10610aff57805160ff1916838001178555610b2d565b82800160010185558215610b2d579182015b82811115610b2c578251825591602001919060010190610b11565b5b509050610b3a9190610b8d565b5090565b60c06040519081016040528060008152602001600073ffffffffffffffffffffffffffffffffffffffff1681526020016060815260200160008152602001600015158152602001600081525090565b610baf91905b80821115610bab576000816000905550600101610b93565b5090565b905600a165627a7a723058206497f428d77a1665d0dd38a84e9a8928f7865553504a081c79cd3487398f50090029",
  "source": "// SPDX-License-Identifier: MIT\npragma solidity ^0.4.24;  \n\ncontract Properties {\n\n    uint public propertyCounter = 0;\n    struct Property \n    {\n        uint256 id;\n        address owner;\n        string city;\n        uint256 price;\n        bool isSelled;\n        uint256 createdAt;\n    }\n    constructor() public\n    {\n        // owner = msg.sender;                      // who creates the current transaction\n        uploadProperty(\"Viladecans\", 150000);\n    }\n\n    // ----------------------- MAPPINGS -----------------------\n    mapping (uint256 => Property) public properties;\n\n    // ----------------------- EVENTS -----------------------\n    event PropertyCreated(\n        uint256 id,                     // ID\n        address owner,\n        // string prAddress,            // City address\n        string city,\n        uint256 price,\n        bool isSelled,                  // Vendida?\n        // bool sellOrRent,             // Sell? Rent?\n        // uint256 area,                // Area in m²\n        // uint256 rooms,               // Num of rooms\n        // uint256 bathrooms,           // Num of bathrooms\n        uint256 createdAt\n    );\n\n    event isPropertySelled (uint256 id, bool isSelled);\n\n    // ----------------------- FUNCTIONS -----------------------\n    // Generates random number \n    function getRandomId() private view returns (uint)\n    { \n        return uint(keccak256(abi.encodePacked(block.difficulty, block.timestamp, msg.sender)))%20000;\n    }\n\n    // Creates a new property\n    function uploadProperty(string _city, uint256 _price) public payable\n    {\n        properties[propertyCounter] = Property(getRandomId(), msg.sender, _city, _price, false, block.timestamp);\n        emit PropertyCreated(getRandomId(), msg.sender, _city, _price, false, block.timestamp);\n        propertyCounter++;\n    }\n\n    // Get index from @\n    function getPropertyFromIndex(uint _index) public view returns (address)\n    {\n        if (_index <= propertyCounter) return properties[_index].owner;\n        else return 0x0;\n    }\n\n    // Get @ from index\n    function getPropertiesFromOwner(address _address) public view returns (uint[])\n    {\n        uint[] propertiesMatch;\n        for (uint i = 0; i < propertyCounter; i++)\n        {\n            if (_address == properties[i].owner) propertiesMatch.push(i);\n        }\n    }\n\n    // Marks the property as sold\n    function removeProperty(uint _i) public{\n        Property memory _property = properties[_i];\n        _property.isSelled = true;\n\n        properties[_i] = _property;\n        emit isPropertySelled(_i, _property.isSelled);\n    }\n}",
  "sourcePath": "/home/hector/Sites/TFG/contracts/Properties.sol",
  "compiler": {
    "name": "solc",
    "version": "0.4.24+commit.e67f0147.Emscripten.clang"
  },
  "schemaVersion": "3.4.3",
  "updatedAt": "2021-11-18T17:05:52.605Z",
  "networkType": "ethereum",
  "devdoc": {
    "methods": {}
  },
  "userdoc": {
    "methods": {}
  }
}