{
  "contractName": "Properties",
  "abi": [
    {
      "constant": true,
      "inputs": [],
      "name": "propertyCounter",
      "outputs": [
        {
          "name": "",
          "type": "uint256"
        }
      ],
      "payable": false,
      "stateMutability": "view",
      "type": "function"
    },
    {
      "constant": true,
      "inputs": [
        {
          "name": "",
          "type": "uint256"
        }
      ],
      "name": "properties",
      "outputs": [
        {
          "name": "id",
          "type": "uint256"
        },
        {
          "name": "city",
          "type": "string"
        },
        {
          "name": "price",
          "type": "uint256"
        },
        {
          "name": "isSelled",
          "type": "bool"
        },
        {
          "name": "createdAt",
          "type": "uint256"
        }
      ],
      "payable": false,
      "stateMutability": "view",
      "type": "function"
    },
    {
      "inputs": [],
      "payable": false,
      "stateMutability": "nonpayable",
      "type": "constructor"
    },
    {
      "anonymous": false,
      "inputs": [
        {
          "indexed": false,
          "name": "id",
          "type": "uint256"
        },
        {
          "indexed": false,
          "name": "city",
          "type": "string"
        },
        {
          "indexed": false,
          "name": "price",
          "type": "uint256"
        },
        {
          "indexed": false,
          "name": "isSelled",
          "type": "bool"
        },
        {
          "indexed": false,
          "name": "createdAt",
          "type": "uint256"
        }
      ],
      "name": "PropertyCreated",
      "type": "event"
    },
    {
      "anonymous": false,
      "inputs": [
        {
          "indexed": false,
          "name": "id",
          "type": "uint256"
        },
        {
          "indexed": false,
          "name": "isSelled",
          "type": "bool"
        }
      ],
      "name": "isPropertySelled",
      "type": "event"
    },
    {
      "constant": false,
      "inputs": [
        {
          "name": "_city",
          "type": "string"
        },
        {
          "name": "_price",
          "type": "uint256"
        }
      ],
      "name": "uploadProperty",
      "outputs": [],
      "payable": true,
      "stateMutability": "payable",
      "type": "function"
    },
    {
      "constant": false,
      "inputs": [
        {
          "name": "_id",
          "type": "uint256"
        }
      ],
      "name": "removeProperty",
      "outputs": [],
      "payable": false,
      "stateMutability": "nonpayable",
      "type": "function"
    }
  ],
  "bytecode": "0x60806040526000805534801561001457600080fd5b506100666040805190810160405280600a81526020017f56696c61646563616e7300000000000000000000000000000000000000000000815250620249f061006b640100000000026401000000009004565b610354565b600080815480929190600101919050555060a0604051908101604052806100a2600054610210640100000000026401000000009004565b81526020018381526020018281526020016000151581526020014281525060016000805481526020019081526020016000206000820151816000015560208201518160010190805190602001906100fa9291906102af565b506040820151816002015560608201518160030160006101000a81548160ff021916908315150217905550608082015181600401559050507f6bd29f841b003ebe93256b11f46749656309ca206b254802233b295bc183e7e761016d600054610210640100000000026401000000009004565b8383600042604051808681526020018060200185815260200184151515158152602001838152602001828103825286818151815260200191508051906020019080838360005b838110156101ce5780820151818401526020810190506101b3565b50505050905090810190601f1680156101fb5780820380516001836020036101000a031916815260200191505b50965050505050505060405180910390a15050565b60004442836040516020018084815260200183815260200182815260200193505050506040516020818303038152906040526040518082805190602001908083835b6020831015156102775780518252602082019150602081019050602083039250610252565b6001836020036101000a0380198251168184511680821785525050505050509050019150506040518091039020600190049050919050565b828054600181600116156101000203166002900490600052602060002090601f016020900481019282601f106102f057805160ff191683800117855561031e565b8280016001018555821561031e579182015b8281111561031d578251825591602001919060010190610302565b5b50905061032b919061032f565b5090565b61035191905b8082111561034d576000816000905550600101610335565b5090565b90565b6107cb806103636000396000f300608060405260043610610062576000357c0100000000000000000000000000000000000000000000000000000000900463ffffffff168063828d250614610067578063bc43d06f146100cd578063d090e47e146100fa578063f7b1080814610125575b600080fd5b6100cb600480360381019080803590602001908201803590602001908080601f0160208091040260200160405190810160405280939291908181526020018383808284378201915050505050509192919290803590602001909291905050506101eb565b005b3480156100d957600080fd5b506100f860048036038101908080359060200190929190505050610372565b005b34801561010657600080fd5b5061010f610548565b6040518082815260200191505060405180910390f35b34801561013157600080fd5b506101506004803603810190808035906020019092919050505061054e565b604051808681526020018060200185815260200184151515158152602001838152602001828103825286818151815260200191508051906020019080838360005b838110156101ac578082015181840152602081019050610191565b50505050905090810190601f1680156101d95780820380516001836020036101000a031916815260200191505b50965050505050505060405180910390f35b600080815480929190600101919050555060a060405190810160405280610213600054610629565b815260200183815260200182815260200160001515815260200142815250600160008054815260200190815260200160002060008201518160000155602082015181600101908051906020019061026b9291906106c8565b506040820151816002015560608201518160030160006101000a81548160ff021916908315150217905550608082015181600401559050507f6bd29f841b003ebe93256b11f46749656309ca206b254802233b295bc183e7e76102cf600054610629565b8383600042604051808681526020018060200185815260200184151515158152602001838152602001828103825286818151815260200191508051906020019080838360005b83811015610330578082015181840152602081019050610315565b50505050905090810190601f16801561035d5780820380516001836020036101000a031916815260200191505b50965050505050505060405180910390a15050565b61037a610748565b6001600083815260200190815260200160002060a0604051908101604052908160008201548152602001600182018054600181600116156101000203166002900480601f01602080910402602001604051908101604052809291908181526020018280546001816001161561010002031660029004801561043c5780601f106104115761010080835404028352916020019161043c565b820191906000526020600020905b81548152906001019060200180831161041f57829003601f168201915b50505050508152602001600282015481526020016003820160009054906101000a900460ff16151515158152602001600482015481525050905080606001511581606001901515908115158152505080600160008481526020019081526020016000206000820151816000015560208201518160010190805190602001906104c59291906106c8565b506040820151816002015560608201518160030160006101000a81548160ff021916908315150217905550608082015181600401559050507f201cb7d1ee086ec886eb18a6eac6473ee8d50536a4873397f808932f09eb0f9e82826060015160405180838152602001821515151581526020019250505060405180910390a15050565b60005481565b6001602052806000526040600020600091509050806000015490806001018054600181600116156101000203166002900480601f0160208091040260200160405190810160405280929190818152602001828054600181600116156101000203166002900480156106005780601f106105d557610100808354040283529160200191610600565b820191906000526020600020905b8154815290600101906020018083116105e357829003601f168201915b5050505050908060020154908060030160009054906101000a900460ff16908060040154905085565b60004442836040516020018084815260200183815260200182815260200193505050506040516020818303038152906040526040518082805190602001908083835b602083101515610690578051825260208201915060208101905060208303925061066b565b6001836020036101000a0380198251168184511680821785525050505050509050019150506040518091039020600190049050919050565b828054600181600116156101000203166002900490600052602060002090601f016020900481019282601f1061070957805160ff1916838001178555610737565b82800160010185558215610737579182015b8281111561073657825182559160200191906001019061071b565b5b509050610744919061077a565b5090565b60a060405190810160405280600081526020016060815260200160008152602001600015158152602001600081525090565b61079c91905b80821115610798576000816000905550600101610780565b5090565b905600a165627a7a72305820df3f1dc3aa91200590eb559986f3fdb9369abf3e167049824f68aa6cc07f7bac0029",
  "source": "// SPDX-License-Identifier: MIT\npragma solidity ^0.4.24;  \n\ncontract Properties {\n    \n    // address public owner;\n    // uint ipfsHash;\n    uint public propertyCounter = 0;\n\n    // Clave - Valor\n    mapping (uint256 => Property) public properties;\n\n    // function set(uint x) public\n    // {\n    //     ipfsHash = x;\n    // }\n\n    // function get() public view returns(uint)\n    // {\n    //     return ipfsHash;\n    // }\n\n    constructor() public\n    {\n        // owner = msg.sender;                      // who creates the current transaction\n        uploadProperty(\"Viladecans\", 150000);\n    }\n\n    event PropertyCreated(\n        uint256 id,                     // ID (Pending auto)\n        // string prAddress,            // City address\n        string city,\n        uint256 price,\n        bool isSelled,                  // Vendida?\n        // bool sellOrRent,             // Sell? Rent?\n        // uint256 area,                // Area in m²\n        // uint256 rooms,               // Num of rooms\n        // uint256 bathrooms,           // Num of bathrooms\n        uint256 createdAt\n    );\n\n    event isPropertySelled (uint256 id, bool isSelled);\n\n    struct Property \n    {\n        uint256 id;\n        string city;\n        uint256 price;\n        bool isSelled;\n        uint256 createdAt;\n    }\n\n    function getRandomId(uint _number) private view returns (uint)\n    {\n        return uint(keccak256(abi.encodePacked(block.difficulty, block.timestamp, _number)));\n    }\n\n    // Creates a new property\n    function uploadProperty(string _city, uint256 _price) public payable\n    {\n        propertyCounter++;\n        properties[propertyCounter] = Property(getRandomId(propertyCounter), _city, _price, false, block.timestamp);\n        emit PropertyCreated(getRandomId(propertyCounter), _city, _price, false, block.timestamp);\n    }\n\n    // Se ejecuta al vender una propiedad (isSelled = 1)\n    function removeProperty(uint _id) public{\n        Property memory _property = properties[_id];\n        _property.isSelled = !_property.isSelled;\n\n        properties[_id] = _property;\n        emit isPropertySelled(_id, _property.isSelled);\n    }\n\n    // modifier isOwner() {\n    //     require(owner == msg.sender);\n    //     _;\n    // }\n}",
  "sourcePath": "/home/hector/Sites/TFG/contracts/Properties.sol",
  "compiler": {
    "name": "solc",
    "version": "0.4.24+commit.e67f0147.Emscripten.clang"
  },
  "schemaVersion": "3.4.3",
  "updatedAt": "2021-11-18T07:16:39.335Z",
  "networkType": "ethereum",
  "devdoc": {
    "methods": {}
  },
  "userdoc": {
    "methods": {}
  }
}