{
  "contractName": "Properties",
  "abi": [
    {
      "constant": true,
      "inputs": [],
      "name": "propertyCounter",
      "outputs": [
        {
          "name": "",
          "type": "uint256"
        }
      ],
      "payable": false,
      "stateMutability": "view",
      "type": "function"
    },
    {
      "constant": true,
      "inputs": [
        {
          "name": "",
          "type": "uint256"
        }
      ],
      "name": "properties",
      "outputs": [
        {
          "name": "id",
          "type": "uint256"
        },
        {
          "name": "city",
          "type": "string"
        },
        {
          "name": "price",
          "type": "uint256"
        },
        {
          "name": "isSelled",
          "type": "bool"
        },
        {
          "name": "createdAt",
          "type": "uint256"
        }
      ],
      "payable": false,
      "stateMutability": "view",
      "type": "function"
    },
    {
      "inputs": [],
      "payable": false,
      "stateMutability": "nonpayable",
      "type": "constructor"
    },
    {
      "anonymous": false,
      "inputs": [
        {
          "indexed": false,
          "name": "id",
          "type": "uint256"
        },
        {
          "indexed": false,
          "name": "city",
          "type": "string"
        },
        {
          "indexed": false,
          "name": "price",
          "type": "uint256"
        },
        {
          "indexed": false,
          "name": "isSelled",
          "type": "bool"
        },
        {
          "indexed": false,
          "name": "createdAt",
          "type": "uint256"
        }
      ],
      "name": "PropertyCreated",
      "type": "event"
    },
    {
      "anonymous": false,
      "inputs": [
        {
          "indexed": false,
          "name": "id",
          "type": "uint256"
        },
        {
          "indexed": false,
          "name": "isSelled",
          "type": "bool"
        }
      ],
      "name": "isPropertySelled",
      "type": "event"
    },
    {
      "constant": false,
      "inputs": [
        {
          "name": "x",
          "type": "uint256"
        }
      ],
      "name": "set",
      "outputs": [],
      "payable": false,
      "stateMutability": "nonpayable",
      "type": "function"
    },
    {
      "constant": true,
      "inputs": [],
      "name": "get",
      "outputs": [
        {
          "name": "",
          "type": "uint256"
        }
      ],
      "payable": false,
      "stateMutability": "view",
      "type": "function"
    },
    {
      "constant": false,
      "inputs": [
        {
          "name": "_city",
          "type": "string"
        },
        {
          "name": "_price",
          "type": "uint256"
        }
      ],
      "name": "uploadProperty",
      "outputs": [],
      "payable": false,
      "stateMutability": "nonpayable",
      "type": "function"
    },
    {
      "constant": false,
      "inputs": [
        {
          "name": "_id",
          "type": "uint256"
        }
      ],
      "name": "removeProperty",
      "outputs": [],
      "payable": false,
      "stateMutability": "nonpayable",
      "type": "function"
    }
  ],
  "bytecode": "0x6080604052600060015534801561001557600080fd5b506100676040805190810160405280600a81526020017f56696c61646563616e7300000000000000000000000000000000000000000000815250620249f061006c640100000000026401000000009004565b61028a565b60016000815480929190600101919050555060a0604051908101604052806001548152602001838152602001828152602001600015158152602001428152506002600060015481526020019081526020016000206000820151816000015560208201518160010190805190602001906100e69291906101e5565b506040820151816002015560608201518160030160006101000a81548160ff021916908315150217905550608082015181600401559050507f6bd29f841b003ebe93256b11f46749656309ca206b254802233b295bc183e7e76001548383600042604051808681526020018060200185815260200184151515158152602001838152602001828103825286818151815260200191508051906020019080838360005b838110156101a3578082015181840152602081019050610188565b50505050905090810190601f1680156101d05780820380516001836020036101000a031916815260200191505b50965050505050505060405180910390a15050565b828054600181600116156101000203166002900490600052602060002090601f016020900481019282601f1061022657805160ff1916838001178555610254565b82800160010185558215610254579182015b82811115610253578251825591602001919060010190610238565b5b5090506102619190610265565b5090565b61028791905b8082111561028357600081600090555060010161026b565b5090565b90565b6107ac806102996000396000f300608060405260043610610078576000357c0100000000000000000000000000000000000000000000000000000000900463ffffffff16806360fe47b11461007d5780636d4ce63c146100aa578063828d2506146100d5578063bc43d06f14610148578063d090e47e14610175578063f7b10808146101a0575b600080fd5b34801561008957600080fd5b506100a860048036038101908080359060200190929190505050610266565b005b3480156100b657600080fd5b506100bf610270565b6040518082815260200191505060405180910390f35b3480156100e157600080fd5b50610146600480360381019080803590602001908201803590602001908080601f016020809104026020016040519081016040528093929190818152602001838380828437820191505050505050919291929080359060200190929190505050610279565b005b34801561015457600080fd5b50610173600480360381019080803590602001909291905050506103f2565b005b34801561018157600080fd5b5061018a6105c8565b6040518082815260200191505060405180910390f35b3480156101ac57600080fd5b506101cb600480360381019080803590602001909291905050506105ce565b604051808681526020018060200185815260200184151515158152602001838152602001828103825286818151815260200191508051906020019080838360005b8381101561022757808201518184015260208101905061020c565b50505050905090810190601f1680156102545780820380516001836020036101000a031916815260200191505b50965050505050505060405180910390f35b8060008190555050565b60008054905090565b60016000815480929190600101919050555060a0604051908101604052806001548152602001838152602001828152602001600015158152602001428152506002600060015481526020019081526020016000206000820151816000015560208201518160010190805190602001906102f39291906106a9565b506040820151816002015560608201518160030160006101000a81548160ff021916908315150217905550608082015181600401559050507f6bd29f841b003ebe93256b11f46749656309ca206b254802233b295bc183e7e76001548383600042604051808681526020018060200185815260200184151515158152602001838152602001828103825286818151815260200191508051906020019080838360005b838110156103b0578082015181840152602081019050610395565b50505050905090810190601f1680156103dd5780820380516001836020036101000a031916815260200191505b50965050505050505060405180910390a15050565b6103fa610729565b6002600083815260200190815260200160002060a0604051908101604052908160008201548152602001600182018054600181600116156101000203166002900480601f0160208091040260200160405190810160405280929190818152602001828054600181600116156101000203166002900480156104bc5780601f10610491576101008083540402835291602001916104bc565b820191906000526020600020905b81548152906001019060200180831161049f57829003601f168201915b50505050508152602001600282015481526020016003820160009054906101000a900460ff16151515158152602001600482015481525050905080606001511581606001901515908115158152505080600260008481526020019081526020016000206000820151816000015560208201518160010190805190602001906105459291906106a9565b506040820151816002015560608201518160030160006101000a81548160ff021916908315150217905550608082015181600401559050507f201cb7d1ee086ec886eb18a6eac6473ee8d50536a4873397f808932f09eb0f9e82826060015160405180838152602001821515151581526020019250505060405180910390a15050565b60015481565b6002602052806000526040600020600091509050806000015490806001018054600181600116156101000203166002900480601f0160208091040260200160405190810160405280929190818152602001828054600181600116156101000203166002900480156106805780601f1061065557610100808354040283529160200191610680565b820191906000526020600020905b81548152906001019060200180831161066357829003601f168201915b5050505050908060020154908060030160009054906101000a900460ff16908060040154905085565b828054600181600116156101000203166002900490600052602060002090601f016020900481019282601f106106ea57805160ff1916838001178555610718565b82800160010185558215610718579182015b828111156107175782518255916020019190600101906106fc565b5b509050610725919061075b565b5090565b60a060405190810160405280600081526020016060815260200160008152602001600015158152602001600081525090565b61077d91905b80821115610779576000816000905550600101610761565b5090565b905600a165627a7a72305820aa060fc5a31a72a33dd28d3722dd0d5e6820b35e5db454f9c014dbf1626a883a0029",
  "source": "// SPDX-License-Identifier: MIT\npragma solidity ^0.4.24;  \n\ncontract Properties {\n    \n    // address public owner;\n    uint ipfsHash;\n    uint public propertyCounter = 0;\n\n    // Clave - Valor\n    mapping (uint256 => Property) public properties;\n\n    function set(uint x) public {\n        ipfsHash = x;\n    }\n\n    function get() public view returns(uint){\n        return ipfsHash;\n    }\n\n    constructor() public{\n        // owner = msg.sender;\n        uploadProperty(\"Viladecans\", 150000);\n    }\n\n    event PropertyCreated(\n        uint256 id,                 // ID (PDT AUTOMATICA)\n        // string prAddress,           // address\n        string city,                // Ciudad\n        uint256 price,              // Precio\n        bool isSelled,              // Bool vendida si/no\n        // bool sellOrRent,            // Bool venta/alquiler\n        // uint256 area,               // area in m²\n        // uint256 rooms,              // number of rooms\n        // uint256 bathrooms,          // number of bathrooms\n        uint256 createdAt           // Fecha\n    );\n\n    event isPropertySelled (uint256 id, bool isSelled);\n\n    struct Property {\n        uint256 id;\n        string city;\n        uint256 price;\n        bool isSelled;\n        uint256 createdAt;\n    }\n\n    // CRUD\n    // Se crea una nueva propiedad\n    function uploadProperty(string _city, uint256 _price) public{\n        propertyCounter++;\n        properties[propertyCounter] = Property(propertyCounter, _city, _price, false, block.timestamp);\n        emit PropertyCreated(propertyCounter, _city, _price, false, block.timestamp);\n    }\n\n    // // Se ejecuta al vender la propiedad (isSelled = 1)\n    // function updateProperty(){\n\n    // }\n\n    // Se ejecuta al vender una propiedad (isSelled = 1)\n    function removeProperty(uint _id) public{\n        Property memory _property = properties[_id];\n        _property.isSelled = !_property.isSelled;\n\n        properties[_id] = _property;\n        emit isPropertySelled(_id, _property.isSelled);\n    }\n\n}",
  "sourcePath": "/home/hector/Sites/TFG/contracts/Properties.sol",
  "compiler": {
    "name": "solc",
    "version": "0.4.24+commit.e67f0147.Emscripten.clang"
  },
  "schemaVersion": "3.4.3",
  "updatedAt": "2021-11-14T06:55:48.117Z",
  "networkType": "ethereum",
  "devdoc": {
    "methods": {}
  },
  "userdoc": {
    "methods": {}
  }
}