{
  "contractName": "Properties",
  "abi": [
    {
      "constant": true,
      "inputs": [],
      "name": "propertyCounter",
      "outputs": [
        {
          "name": "",
          "type": "uint256"
        }
      ],
      "payable": false,
      "stateMutability": "view",
      "type": "function"
    },
    {
      "constant": true,
      "inputs": [
        {
          "name": "",
          "type": "uint256"
        }
      ],
      "name": "properties",
      "outputs": [
        {
          "name": "id",
          "type": "uint256"
        },
        {
          "name": "owner",
          "type": "address"
        },
        {
          "name": "city",
          "type": "string"
        },
        {
          "name": "price",
          "type": "uint256"
        },
        {
          "name": "isSelled",
          "type": "bool"
        },
        {
          "name": "createdAt",
          "type": "uint256"
        }
      ],
      "payable": false,
      "stateMutability": "view",
      "type": "function"
    },
    {
      "inputs": [],
      "payable": false,
      "stateMutability": "nonpayable",
      "type": "constructor"
    },
    {
      "anonymous": false,
      "inputs": [
        {
          "indexed": false,
          "name": "id",
          "type": "uint256"
        },
        {
          "indexed": false,
          "name": "owner",
          "type": "address"
        },
        {
          "indexed": false,
          "name": "city",
          "type": "string"
        },
        {
          "indexed": false,
          "name": "price",
          "type": "uint256"
        },
        {
          "indexed": false,
          "name": "isSelled",
          "type": "bool"
        },
        {
          "indexed": false,
          "name": "createdAt",
          "type": "uint256"
        }
      ],
      "name": "PropertyCreated",
      "type": "event"
    },
    {
      "anonymous": false,
      "inputs": [
        {
          "indexed": false,
          "name": "index",
          "type": "uint256"
        },
        {
          "indexed": false,
          "name": "isSelled",
          "type": "bool"
        }
      ],
      "name": "isPropertySelled",
      "type": "event"
    },
    {
      "constant": false,
      "inputs": [
        {
          "name": "_address",
          "type": "address"
        },
        {
          "name": "_city",
          "type": "string"
        },
        {
          "name": "_price",
          "type": "uint256"
        }
      ],
      "name": "uploadProperty",
      "outputs": [],
      "payable": true,
      "stateMutability": "payable",
      "type": "function"
    },
    {
      "constant": true,
      "inputs": [
        {
          "name": "_index",
          "type": "uint256"
        }
      ],
      "name": "getPropertyFromIndex",
      "outputs": [
        {
          "name": "",
          "type": "address"
        }
      ],
      "payable": false,
      "stateMutability": "view",
      "type": "function"
    },
    {
      "constant": true,
      "inputs": [
        {
          "name": "_address",
          "type": "address"
        }
      ],
      "name": "getPropertiesFromOwner",
      "outputs": [
        {
          "name": "",
          "type": "uint256[]"
        }
      ],
      "payable": false,
      "stateMutability": "view",
      "type": "function"
    },
    {
      "constant": false,
      "inputs": [
        {
          "name": "_index",
          "type": "uint256"
        }
      ],
      "name": "removeProperty",
      "outputs": [],
      "payable": false,
      "stateMutability": "nonpayable",
      "type": "function"
    }
  ],
  "bytecode": "0x6080604052600080553480156200001557600080fd5b506200006a336040805190810160405280600a81526020017f56696c61646563616e7300000000000000000000000000000000000000000000815250620249f062000070640100000000026401000000009004565b62000447565b60c06040519081016040528062000095620002b0640100000000026401000000009004565b81526020018473ffffffffffffffffffffffffffffffffffffffff1681526020018381526020018281526020016000151581526020014281525060016000805481526020019081526020016000206000820151816000015560208201518160010160006101000a81548173ffffffffffffffffffffffffffffffffffffffff021916908373ffffffffffffffffffffffffffffffffffffffff16021790555060408201518160020190805190602001906200015292919062000398565b506060820151816003015560808201518160040160006101000a81548160ff02191690831515021790555060a0820151816005015590505060008081548092919060010191905055507f3e4fce1c3fb6d8a6746a5f745868980b6b7af130e470eccaa90dafc39007c233620001d5620002b0640100000000026401000000009004565b848484600042604051808781526020018673ffffffffffffffffffffffffffffffffffffffff1673ffffffffffffffffffffffffffffffffffffffff1681526020018060200185815260200184151515158152602001838152602001828103825286818151815260200191508051906020019080838360005b838110156200026b5780820151818401526020810190506200024e565b50505050905090810190601f168015620002995780820380516001836020036101000a031916815260200191505b5097505050505050505060405180910390a1505050565b6000614e20444233604051602001808481526020018381526020018273ffffffffffffffffffffffffffffffffffffffff1673ffffffffffffffffffffffffffffffffffffffff166c0100000000000000000000000002815260140193505050506040516020818303038152906040526040518082805190602001908083835b60208310151562000357578051825260208201915060208101905060208303925062000330565b6001836020036101000a0380198251168184511680821785525050505050509050019150506040518091039020600190048115156200039257fe5b06905090565b828054600181600116156101000203166002900490600052602060002090601f016020900481019282601f10620003db57805160ff19168380011785556200040c565b828001600101855582156200040c579182015b828111156200040b578251825591602001919060010190620003ee565b5b5090506200041b91906200041f565b5090565b6200044491905b808211156200044057600081600090555060010162000426565b5090565b90565b610a2a80620004576000396000f300608060405260043610610078576000357c0100000000000000000000000000000000000000000000000000000000900463ffffffff1680638675425f1461007d578063bc43d06f14610115578063d090e47e14610142578063f145d7d81461016d578063f3bdae2d146101f3578063f7b1080814610260575b600080fd5b34801561008957600080fd5b506100be600480360381019080803573ffffffffffffffffffffffffffffffffffffffff169060200190929190505050610359565b6040518080602001828103825283818151815260200191508051906020019060200280838360005b838110156101015780820151818401526020810190506100e6565b505050509050019250505060405180910390f35b34801561012157600080fd5b5061014060048036038101908080359060200190929190505050610469565b005b34801561014e57600080fd5b50610157610500565b6040518082815260200191505060405180910390f35b6101f1600480360381019080803573ffffffffffffffffffffffffffffffffffffffff169060200190929190803590602001908201803590602001908080601f016020809104026020016040519081016040528093929190818152602001838380828437820191505050505050919291929080359060200190929190505050610506565b005b3480156101ff57600080fd5b5061021e6004803603810190808035906020019092919050505061071f565b604051808273ffffffffffffffffffffffffffffffffffffffff1673ffffffffffffffffffffffffffffffffffffffff16815260200191505060405180910390f35b34801561026c57600080fd5b5061028b60048036038101908080359060200190929190505050610773565b604051808781526020018673ffffffffffffffffffffffffffffffffffffffff1673ffffffffffffffffffffffffffffffffffffffff1681526020018060200185815260200184151515158152602001838152602001828103825286818151815260200191508051906020019080838360005b838110156103195780820151818401526020810190506102fe565b50505050905090810190601f1680156103465780820380516001836020036101000a031916815260200191505b5097505050505050505060405180910390f35b6060600080600090505b600054811015610410576001600082815260200190815260200160002060010160009054906101000a900473ffffffffffffffffffffffffffffffffffffffff1673ffffffffffffffffffffffffffffffffffffffff168473ffffffffffffffffffffffffffffffffffffffff16141561040357818190806001815401808255809150509060018203906000526020600020016000909192909190915055505b8080600101915050610363565b8180548060200260200160405190810160405280929190818152602001828054801561045b57602002820191906000526020600020905b815481526020019060010190808311610447575b505050505092505050919050565b600180600083815260200190815260200160002060040160006101000a81548160ff0219169083151502179055507f201cb7d1ee086ec886eb18a6eac6473ee8d50536a4873397f808932f09eb0f9e816001600084815260200190815260200160002060040160009054906101000a900460ff1660405180838152602001821515151581526020019250505060405180910390a150565b60005481565b60c06040519081016040528061051a610874565b81526020018473ffffffffffffffffffffffffffffffffffffffff1681526020018381526020018281526020016000151581526020014281525060016000805481526020019081526020016000206000820151816000015560208201518160010160006101000a81548173ffffffffffffffffffffffffffffffffffffffff021916908373ffffffffffffffffffffffffffffffffffffffff16021790555060408201518160020190805190602001906105d5929190610959565b506060820151816003015560808201518160040160006101000a81548160ff02191690831515021790555060a0820151816005015590505060008081548092919060010191905055507f3e4fce1c3fb6d8a6746a5f745868980b6b7af130e470eccaa90dafc39007c233610647610874565b848484600042604051808781526020018673ffffffffffffffffffffffffffffffffffffffff1673ffffffffffffffffffffffffffffffffffffffff1681526020018060200185815260200184151515158152602001838152602001828103825286818151815260200191508051906020019080838360005b838110156106db5780820151818401526020810190506106c0565b50505050905090810190601f1680156107085780820380516001836020036101000a031916815260200191505b5097505050505050505060405180910390a1505050565b6000805482111515610769576001600083815260200190815260200160002060010160009054906101000a900473ffffffffffffffffffffffffffffffffffffffff16905061076e565b600090505b919050565b60016020528060005260406000206000915090508060000154908060010160009054906101000a900473ffffffffffffffffffffffffffffffffffffffff1690806002018054600181600116156101000203166002900480601f01602080910402602001604051908101604052809291908181526020018280546001816001161561010002031660029004801561084b5780601f106108205761010080835404028352916020019161084b565b820191906000526020600020905b81548152906001019060200180831161082e57829003601f168201915b5050505050908060030154908060040160009054906101000a900460ff16908060050154905086565b6000614e20444233604051602001808481526020018381526020018273ffffffffffffffffffffffffffffffffffffffff1673ffffffffffffffffffffffffffffffffffffffff166c0100000000000000000000000002815260140193505050506040516020818303038152906040526040518082805190602001908083835b60208310151561091957805182526020820191506020810190506020830392506108f4565b6001836020036101000a03801982511681845116808217855250505050505090500191505060405180910390206001900481151561095357fe5b06905090565b828054600181600116156101000203166002900490600052602060002090601f016020900481019282601f1061099a57805160ff19168380011785556109c8565b828001600101855582156109c8579182015b828111156109c75782518255916020019190600101906109ac565b5b5090506109d591906109d9565b5090565b6109fb91905b808211156109f75760008160009055506001016109df565b5090565b905600a165627a7a723058209bae766527d8da46b3a9665a53389b04414fe84a822527b9bf7a2635a0e0a7a40029",
  "source": "// SPDX-License-Identifier: MIT\npragma solidity ^0.4.24;  \n\ncontract Properties {\n\n    uint public propertyCounter = 0;\n    struct Property \n    {\n        uint256 id;\n        address owner;\n        string city;\n        uint256 price;\n        bool isSelled;\n        uint256 createdAt;\n    }\n    constructor() public\n    {\n        // owner = msg.sender;                      // who creates the current transaction\n        uploadProperty(msg.sender, \"Viladecans\", 150000);\n    }\n\n    // ----------------------- MAPPINGS -----------------------\n    mapping (uint256 => Property) public properties;\n\n    // ----------------------- EVENTS -----------------------\n    event PropertyCreated(\n        uint256 id,                     // ID\n        address owner,\n        // string prAddress,            // City address\n        string city,\n        uint256 price,\n        bool isSelled,                  // Vendida?\n        // bool sellOrRent,             // Sell? Rent?\n        // uint256 area,                // Area in m²\n        // uint256 rooms,               // Num of rooms\n        // uint256 bathrooms,           // Num of bathrooms\n        uint256 createdAt\n    );\n\n    event isPropertySelled (uint256 index, bool isSelled);\n\n    // ----------------------- FUNCTIONS -----------------------\n    // Returns a generate random number \n    function getRandomId() private view returns (uint)\n    { \n        return uint(keccak256(abi.encodePacked(block.difficulty, block.timestamp, msg.sender)))%20000;\n    }\n\n    // Creates a new property, emit PropertyCreated event\n    function uploadProperty(address _address, string _city, uint256 _price) public payable\n    {\n        properties[propertyCounter] = Property(getRandomId(), _address, _city, _price, false, block.timestamp);\n        propertyCounter++;\n        emit PropertyCreated(getRandomId(), _address, _city, _price, false, block.timestamp);\n    }\n\n    // Return the @ from index\n    function getPropertyFromIndex(uint _index) public view returns (address)\n    {\n        if (_index <= propertyCounter) return properties[_index].owner;\n        else return 0x0;\n    }\n\n    // Returns an array with the indexs, from @\n    function getPropertiesFromOwner(address _address) public view returns (uint[])\n    {\n        uint[] storage propertiesMatch;\n        for (uint i = 0; i < propertyCounter; i++)\n        {\n            if (_address == properties[i].owner) propertiesMatch.push(i);\n        }\n\n        return propertiesMatch;\n    }\n\n    // Marks the property as sold\n    function removeProperty(uint _index) public{\n        properties[_index].isSelled = true;\n        emit isPropertySelled(_index, properties[_index].isSelled);\n    }\n}",
  "sourcePath": "/home/hector/Sites/TFG/contracts/Properties.sol",
  "compiler": {
    "name": "solc",
    "version": "0.4.24+commit.e67f0147.Emscripten.clang"
  },
  "schemaVersion": "3.4.3",
  "updatedAt": "2021-11-19T14:48:08.260Z",
  "networkType": "ethereum",
  "devdoc": {
    "methods": {}
  },
  "userdoc": {
    "methods": {}
  }
}